:100000000C9480000C94A8000C94A8000C94A800F8
:100010000C94A8000C9438180C94A8000C949A170F
:100020000C94A8000C9424160C94A8000C94A8001E
:100030000C94A8000C94A8000C94A8000C94A800A0
:100040000C94DA150C94A8000C94A8150C94821545
:100050000C94A8000C94A8000C94A8000C94A80080
:100060000C947B160C94A80005A84CCDB2D44EB9C4
:100070003836A9020C50B9918688083CA6AAAA2A4B
:10008000BE000000803F00000000240027002A007E
:1000900000000000250028002B00040404040404D0
:1000A0000404020202020202030303030303010227
:1000B00004081020408001020408102001020408F6
:1000C00010200000000800020100000304070000E7
:1000D0000000000000004A756C20313620323032BA
:1000E000352031353A30373A333631303831352EE4
:1000F000007665720028324B647D96AFC8E1D71850
:1001000011241FBECFEFD8E0DEBFCDBF25E0A6EDA6
:10011000B1E001C01D92A53EB207E1F711E0A0E0F9
:10012000B1E0E8EDF1E602C005900D92A63DB10701
:10013000D9F710E0C0E8D0E004C02197FE010E948A
:10014000D52ECF37D107C9F70E9414190C94EA3085
:100150000C940000E0911C03F0911D03309729F0EE
:10016000109217031092160309940895CF93DF930A
:10017000AC01E0911A03F0911B033097F1F09091DC
:100180001903809118039817C0F090E0292F30E0F0
:100190002617370754F4D901AE5EBD4F240F351F23
:1001A000E90128812C939F5FF1CF1092190360938E
:1001B0001803CB01DF91CF910994DF91CF9108957E
:1001C000AF92BF92CF92DF92EF92FF920F931F9365
:1001D000CF93DF936C017B018B01040F151FEB01A3
:1001E0005E01AE18BF08C017D10759F06991D6015A
:1001F000ED91FC910190F081E02DC6010995892BCC
:1002000079F7C501DF91CF911F910F91FF90EF908A
:10021000DF90CF90BF90AF900895FC01538D448D37
:10022000252F30E0842F90E0821B930B541710F0A1
:10023000CF96089501970895FC01918D828D9817AE
:1002400061F0A28DAE0FBF2FB11D5D968C91928D86
:100250009F5F9F73928F90E008958FEF9FEF0895B7
:10026000FC01918D828D981731F0828DE80FF11D80
:10027000858D90E008958FEF9FEF0895FC01918D9B
:10028000228D892F90E0805C9F4F821B91098F7394
:100290009927089584E194E00E943E0121E0892B92
:1002A00009F420E0822F089580E090E0892B29F066
:1002B0000E944A0181110C9400000895FC01A48D54
:1002C000A80FB92FB11DA35ABF4F2C91848D90E078
:1002D00001968F739927848FA689B7892C93A0895B
:1002E000B1898C91837080648C93938D848D9813E5
:1002F00006C00288F389E02D80818F7D8083089578
:10030000EF92FF920F931F93CF93DF93EC0181E065
:10031000888F9B8D8C8D98131AC0E889F98980810C
:1003200085FF15C09FB7F894EE89FF896083E8893F
:10033000F98980818370806480839FBF81E090E031
:10034000DF91CF911F910F91FF90EF900895F62EBE
:100350000B8D10E00F5F1F4F0F731127E02E8C8D58
:100360008E110CC00FB607FCFACFE889F98980819D
:1003700085FFF5CFCE010E945E01F1CFEB8DEC0F32
:10038000FD2FF11DE35AFF4FF0829FB7F8940B8FBA
:10039000EA89FB8980818062CFCF0F931F93CF932F
:1003A000DF938C01D0E0C0E0F801EC0FFD1F6491F9
:1003B000662341F084E194E00E948001892B11F0D2
:1003C0002196F2CFCE01DF91CF911F910F91089529
:1003D000CF93DF93EC01888D8823B9F0AA89BB897C
:1003E000E889F9898C9185FD03C0808186FD0DC067
:1003F0000FB607FCF7CF8C9185FFF2CF808185FF88
:10040000EDCFCE010E945E01E9CFDF91CF9108953B
:1004100090E0FC01EE53FF4F2491FC01E255FF4FA9
:100420003491FC01E656FF4FE491EE23C9F02223FC
:1004300039F0233001F1A8F4213019F1223029F1EB
:10044000F0E0EE0FFF1FE057FF4FA591B4918FB77B
:10045000F894EC91611126C030953E233C938FBFF8
:1004600008952730A9F02830C9F0243049F7809149
:1004700080008F7D03C0809180008F778093800003
:10048000DFCF84B58F7784BDDBCF84B58F7DFBCF85
:100490008091B0008F778093B000D2CF8091B00070
:1004A0008F7DF9CF3E2BDACF482F50E0FA01E2558D
:1004B000FF4F9491FA01E656FF4F2491222399F0C1
:1004C00030E0220F331FF901EA57FF4FA591B49195
:1004D000F901E057FF4F259134912FB7F894EC9133
:1004E000E92BEC932FBF6115710519F460E00C94B2
:1004F00008026F3F710511F461E0F9CFFA01EE5384
:10050000FF4FE491E33019F140F4E130B1F0E23013
:10051000C9F06038710584F7E9CFE73011F1E830B0
:1005200041F1E430B1F780918000806280938000D7
:1005300070938B0060938A00089584B5806884BDB1
:1005400067BD089584B5806284BD68BD08958091BB
:100550008000806880938000709389006093880099
:1005600008958091B00080688093B0006093B300DC
:1005700008958091B00080628093B0006093B400D1
:1005800008953FB7F89480910E0390910F03A091C6
:100590001003B091110326B5A89B05C02F3F19F099
:1005A0000196A11DB11D3FBFBA2FA92F982F8827F3
:1005B000BC01CD01620F711D811D911D42E0660FCE
:1005C000771F881F991F4A95D1F708958F929F92A0
:1005D000AF92BF92CF92DF92EF92FF924B015C01FC
:1005E0000E94C1026B017C010E94C1026C197D094D
:1005F0008E099F09683E734081059105A8F321E0AB
:10060000821A9108A108B10888EEC80E83E0D81EAE
:10061000E11CF11C81149104A104B10429F7FF909D
:10062000EF90DF90CF90BF90AF909F908F90089504
:100630002FB7F89460910A0370910B0380910C031B
:1006400090910D032FBF0895FC0180E090E0A0E899
:10065000BFE3868F978FA0A3B1A382A393A3A4A384
:10066000B5A386A397A3A0A7B1A780E090E0A0E2DE
:10067000B1E482A793A7A4A7B5A7148E81E0858FC4
:10068000089520917802260F3327331F2134310536
:10069000ECF42091BC02FC0190E080E0243069F091
:1006A00082E00895A09178022191AC01485C5D4FF1
:1006B000A40FB52FB11D2C930196861798F3809146
:1006C0007802680F6093780280E0089581E00895D1
:1006D0001092BC0281E08093BE021092BD0261E0E4
:1006E00082E10E94080261E083E10E940802E9EBD6
:1006F000F0E080818E7F808380818D7F808388E49D
:100700008093B80085E48093BC0008950895E0913B
:10071000190380911803E81730F4F0E0EE5EFD4F06
:10072000808190E008958FEF9FEF089590911903D5
:10073000809118032FEF3FEF981748F4E92FF0E06E
:10074000EE5EFD4F208130E09F5F90931903C90159
:1007500008958091180390911903891B990B0895AE
:10076000CF93DF93CB01EA01642F0E944103CE01B6
:10077000DF91CF910895CF93DF931F92CDB7DEB76E
:10078000698361E0CE0101960E94410381E090E01F
:100790000F90DF91CF91089590E080E00895CF927F
:1007A000DF92EF92FF9284E280931E0382E58093B2
:1007B0001F038091BA03809320034091110140935D
:1007C000210320910C0250E8259F90011124809173
:1007D0006C0390916D03181619060CF473C0809188
:1007E0006C0390916D0391958195910967E08F312C
:1007F000910544F466E08031910524F463E070E0F3
:100800000E949F2E80910B0258E0859FC001112409
:10081000282B80E1689FB0011124262B80916A0368
:1008200090916B03181619060CF451C080916A035D
:1008300090916B0391958195910967E08F319105B6
:1008400044F466E08031910524F463E070E00E9496
:100850009F2E622B609322038091000180932303DB
:10086000809100049091010497FD039695958795DA
:1008700095958795809324038091020490910304B9
:1008800097FD039695958795959587958093250374
:100890004D3F11F582E0809326038AE18093270380
:1008A0008CE1809328038FEF809311014BE050E09F
:1008B0006EE173E081EB94E0FF90EF90DF90CF90DA
:1008C0000C94B00380916C0390916D038FCF809155
:1008D0006A0390916B03B1CF493FB9F480914F0304
:1008E000909150039093250380914F039091500372
:1008F0008093260380914D0390914E03909327039C
:1009000080914D0390914E03CCCF453F89F5809166
:100910000D0290910E0280932403880F991F880F77
:10092000991FFC01E75DFC4FC080D180E280F3801D
:10093000C701B6010E94892D6093250370E090E005
:1009400080E00E94342B9B01AC01C701B6010E94DC
:100950009E2C20E030E048EC52E40E94932B0E9451
:10096000892D6093260310922703109228039BCFB2
:100970008091FE039091FF0397FD039695958795CF
:1009800095958795809326038091FC039091FD03B4
:1009900097FD039695958795959587958093270361
:1009A0008091FA039091FB0397FD039695958795A7
:1009B000959587958093280379CF109250031092D4
:1009C0004F0310924E0310924D0308951092C503E9
:1009D0001092C4031092B0031092AF031092AB03B5
:1009E0001092AC031092AD031092AE03109210045B
:1009F00010921104109212041092130410925E03CC
:100A000010925F0310926003109261031092A5038D
:100A10001092A6031092A7031092A80310925A03F3
:100A200010925B0310925C0310925D0310925603C8
:100A300010925703109258031092590310926603B4
:100A40001092670310926803109269031092620378
:100A50001092630310926403109265031092BD0319
:100A60001092BC031092BF031092BE0310926D034C
:100A700010926C0310926B0310926A0308954F92C8
:100A80005F926F927F928F929F92AF92BF92CF921E
:100A9000DF92EF92FF920F931F93CF93DF934B015F
:100AA0005C016A01E901270138011092A4038AE080
:100AB00080939F0381E080939E031416150614F51E
:100AC00082E08093A20320E030E040E05FEBC501CC
:100AD0000E942D2B87FF27C0B601DD0C880B990BD8
:100AE0000E94342B6B017C01AC019B01C301B2015C
:100AF0000E94932BA70196010E949F2C0E94822D99
:100B00006B0111C0452B09F445C08093A203D19419
:100B1000C194D10820E030E040E05FE3C5010E94CD
:100B2000F72D1816CCF2C092A0031C161D06C4F5B2
:100B300081E08093A30320E030E040E05FE3C50163
:100B4000B4010E94F72D1816ECF5BE01DD0F880BDD
:100B5000990B0E94342B4B015C01A30192010E946E
:100B6000932BA50194010E949F2C0E94892D6093D4
:100B7000A103DF91CF911F910F91FF90EF90DF9034
:100B8000CF90BF90AF909F908F907F906F905F902D
:100B90004F90089583E08093A2031092A003C5CFE5
:100BA000209791F082E08093A303D195C195D1095C
:100BB00020E030E040E05FEBC501B4010E942D2B46
:100BC00087FDC3CF6C2FD3CF83E08093A303109214
:100BD000A103CFCFCF93DF93813049F0823069F109
:100BE000C0E4D1E0833029F0DF91CF910895C6E9C8
:100BF000D0E0662777276C1B7D0B072E000C880B37
:100C0000990B0E94342B60935F057093600580936D
:100C1000610590936205BE01DD0F880B990B0E9460
:100C2000342B6093630570936405809365059093FE
:100C3000660581E080934D05D7CFCCEDD0E0D9CFCC
:100C4000823061F0833029F0813031F48CE390E020
:100C5000089588E790E0089590E008958AE590E08F
:100C60000895E091E001E150E730D0F4F0E0E45C79
:100C7000F94F8AE00C94D52E43064A065D066206BB
:100C800069066E0673068093EF031092F1031092CB
:100C9000F00306C08093F1031092F0031092EF036B
:100CA0008091BB03811108C01092EF031092F003F2
:100CB0001092F1031092E00508958093F0031092D2
:100CC000F103ECCF8093F0038093EF031092F103D4
:100CD000E7CF8093F1038093F003E0CF8093F1039B
:100CE0008093EF03D4CF8093F1038093F00380933C
:100CF000EF03D6CF9091F8032091EF032111909349
:100D0000EE032091F00321119093ED032091F10364
:100D100021119093EC03980F9093F80308952F926C
:100D20003F924F925F926F927F928F929F92AF927B
:100D3000BF92CF92DF92EF92FF920F931F93CF93C8
:100D4000DF938C01E5EFF0E0C491BC01990F880BB3
:100D5000990B0E94342B4B015C01C01711060CF05B
:100D600080C0C1E0D0E0BE016B507F4FFB01849199
:100D7000801711060CF465C0CE0101979C012B5021
:100D80003F4FF9014491FB012490F9013490880F01
:100D9000991F880F991FFC01E75DFC4F408051802F
:100DA00062807380B801641B7109072E000C880BE8
:100DB000990B0E94342B6B017C01822D8319990BB6
:100DC000BC01072E000C880B990B0E94342B9B0151
:100DD000AC01C701B6010E94102D6B017C01CC0F44
:100DE000DD1FCC0FDD1FC75DDC4FA30192016881C1
:100DF00079818A819B810E949E2C9B01AC01C70155
:100E0000B6010E94932BA30192010E949F2CA50181
:100E100094010E94932B0E94822DCB01DF91CF91F0
:100E20001F910F91FF90EF90DF90CF90BF90AF9008
:100E30009F908F907F906F905F904F903F902F90FA
:100E400008952196C930D10509F08DCF209149032D
:100E500030914A0340914B0350914C03C501B401BA
:100E6000D8CF2091290330912A0340912B03509130
:100E70002C03F4CFCF93DF93C42F813049F0D9E016
:100E80008AE0613041F0623089F070E060E010C0CB
:100E9000D6E085E0F6CF70E060E00E9454026C2F4F
:100EA00070E08D2FDF91CF910C9454026C2F70E085
:100EB0000E94540270E060E0F4CF4F925F926F9214
:100EC0007F928F929F92AF92BF92CF92DF92EF92DA
:100ED000FF920F931F93CF93DF9300D000D000D0E9
:100EE000CDB7DEB79E838D83CB01BA01209110046C
:100EF0003091110440911204509113040E949E2CD1
:100F00006B017C010E94C10200910C0410910D0440
:100F100020910E0430910F04601B710B820B930B18
:100F20000E94322B20E034E244E759E40E94102D65
:100F30004B015C0120E030E0A9010E942D2B181626
:100F400044F08CEA882E85EC982E87E2A82E87E361
:100F5000B82E0E94C10260930C0470930D0480931C
:100F60000E0490930F0420910804309109044091DD
:100F70000A0450910B04C701B6010E949F2C69839B
:100F80007A838B839C836093080470930904809315
:100F90000A0490930B044090040450900504609060
:100FA000060470900704C0920404D0920504E092F5
:100FB0000604F092070420E030E0A901C701B60161
:100FC0000E94F72D18160CF49DC0C701B601905869
:100FD0002AE037ED43E25CE30E942D2B70E060E0F5
:100FE00087FD38C0A3019201C701B6010E949E2C63
:100FF000A50194010E94102D2AE037ED43E25CE345
:101000000E94932B2B013C012AE939E949E15FE376
:10101000C701B6010E94932B9B01AC01C301B20131
:101020000E949F2C6B017C012AE037ED43E25CE3D8
:1010300069817A818B819C810E94932BA501940107
:101040000E94932B9B01AC01C701B6010E949F2C0B
:101050000E94822D4D815E81519541955109641701
:10106000750734F04D815E81641775070CF4AB0190
:1010700041155105B9F08FEF9FEF1416150614F4C2
:1010800081E090E062E3689F9001699F300D112438
:10109000420F531F11E001E057FD06C012E0411559
:1010A000510509F411E002E05A83498357FF06C055
:1010B000CA019195819591099A83898389819A8141
:1010C0000E948F06482F602F81E00E943A074981D5
:1010D000612F82E026960FB6F894DEBF0FBECDBF1B
:1010E000DF91CF911F910F91FF90EF90DF90CF9004
:1010F000BF90AF909F908F907F906F905F904F9038
:101100000C943A07C701B60163CF0F931F93CF9397
:10111000DF938091E101182F1370682F70E094E045
:10112000759567959A95E1F7062F037082958695D8
:101130008695837011F5C0919703DC2FDF7089E1EC
:10114000D89FD02D1124D93109F441C0C295CF7058
:10115000C89FC02D11248D2F90E00E948F06482F2C
:10116000612F81E00E943A074C2F602F82E0DF91CF
:10117000CF911F910F910C943A07813029F4D091AF
:101180009703C0919603E7CF823029F760919703C8
:1011900070E090E080E00E94342B20E030E040E2FC
:1011A00050E40E94932B0E94822DD62F60919603CB
:1011B00070E090E080E00E94342B20E030E040E2DC
:1011C00050E40E94932B0E94822DC62FC4CFC8E208
:1011D000D8E2C1CFCF93DF93EB012091D8013091BA
:1011E000D9018217930761F03093DB012093DA0174
:1011F0009093D9018093D8013093D7012093D601E1
:101200002091D6013091D7012115310579F487302D
:10121000910579F440E062E081E00E943A0740E005
:1012200061E082E0DF91CF910C943A0727303105DD
:1012300021F40097C1F4488108C0A9014D7F4430D2
:10124000510549F4009761F44E8162E081E00E940B
:101250003A074881E5CF2230310551F4009759F320
:1012600087309105B9F28430910521F54C81EDCF9D
:1012700041305105C1F7009799F7488162E081E05C
:101280000E943A074E81CCCF82309105A1F2833083
:10129000910539F4488162E081E00E943A074A8171
:1012A000BFCF019761F4488162E081E00E943A0774
:1012B0004C81B6CF8630910539F74A81C6CFDF9190
:1012C000CF91089540E063E081E00E943A0740E05A
:1012D00063E082E00C943A07EEE9F3E083E0868372
:1012E000128213820C946209CF93DF93EC010E9467
:1012F00062092091C9033091CA03C90137FF04C0B4
:1013000088279927821B930B019784309105D0F48D
:10131000880F991FC80FD91F1216130664F440E0F6
:1013200062E081E00E943A07488161E082E0DF915B
:10133000CF910C943A07488162E081E00E943A071D
:1013400040E0F3CFDF91CF9108952F923F924F92DB
:101350005F926F927F928F929F92AF92BF92CF9245
:10136000DF92EF92FF920F931F93CF93DF9300D002
:1013700000D000D0CDB7DEB72091180380911903BB
:10138000281B2983243210F033E2398308EE11E060
:101390001D824D818981481759F081EB94E00E94AC
:1013A0009603F80181938F01FD81FF5FFD83F1CFEB
:1013B0002091EA0129838091C803811105C08091A1
:1013C0005503882309F48BC03981393119F581E03F
:1013D0008093C80330931101309300010E941803D9
:1013E0006093990370939A0380939B0390939C035B
:1013F0001092AA031092A9030E94E6040E946209B7
:101400000E9418036093B1037093B2038093B303F7
:101410009093B4038091EB018983823009F0DFC59A
:101420008091EA018093110180930001833D09F4CA
:10143000C3C5843D09F4C6C5863649F481E080936E
:10144000DA031092D9031092D8031092EB03109292
:10145000CF038091EC018093D0039091ED0189132B
:10146000B9C581E08093CF032091EE012093D10391
:101470008091EF018093D2033091F0013093D30338
:101480009091F1019093D403230F3327331F3595A7
:10149000279530EFE32FE21BE093D503890F9927BF
:1014A000991F95958795381B3093D60326960FB6CE
:1014B000F894DEBF0FBECDBFDF91CF911F910F918A
:1014C000FF90EF90DF90CF90BF90AF909F908F9064
:1014D0007F906F905F904F903F902F9008958981FB
:1014E00081508A3608F056C489818D51823080F04F
:1014F00089818052823060F04981433249F0842FE3
:101500008856833028F081E08093BA038093C80323
:10151000898180931101809300010E9418036093D8
:10152000990370939A0380939B0390939C0310926A
:10153000AA031092A9030E94E6040E9462090E9475
:1015400018036093B1037093B2038093B303909335
:10155000B4039981923208F02EC1903208F0FCC396
:101560009A3009F41CC408F05EC0933009F46FC2CD
:1015700008F04DC0913009F4F8C1923009F04ACF1B
:101580001091EC013091E60139838091E701082E3A
:10159000000C990B831B910937FD9395BC01990FA2
:1015A000880B990B0E94342B20E030E044EB52E48E
:1015B0000E94102D6B017C014BEF4103B0011124FF
:1015C000072E000C880B990B0E94342B4B015C01F9
:1015D000E9816E2FEE0F770B880B990B0E94342B4D
:1015E0002B013C0120E030E044EB52E4C701B6019E
:1015F0000E94932B9B01AC01C301B2010E949E2C5F
:101600002B013C01F5E01F9FB001112441C1E9818C
:10161000E43009F4B7C18091EC01E53009F0FACE6D
:1016200080939D03F7CEF981FC3109F460C308F083
:10163000AEC0FA3109F43AC2FB3109F0EBCE809129
:10164000EC018D838093C6032091EE0199819B313B
:1016500009F098C28091ED0190E0880F991F909356
:10166000E3018093E2012093C7036090E201709050
:10167000E301B301072C000C880B990B0E94342B5B
:101680006B017C018091C703811189C2E091E60161
:10169000EE836091E701062E000C770B6E1B71093B
:1016A000E7FD7395072E000C880B990B0E94342BD5
:1016B00020E030E044EB52E40E94102D4B015C012D
:1016C000662777276619770990E080E00E94322B21
:1016D00069837A838B839C83FE816F2FFF0F770B47
:1016E000880B990B0E94342B2B013C0120E030E049
:1016F00044EB52E4C501B4010E94932B9B01AC0161
:10170000C301B2010E949E2C2B013C01A70196014E
:10171000C501B4010E94932B9B01AC01C301B2012E
:101720000E949F2C9B01AC0169817A818B819C81F5
:101730000E949E2C0E94822D7093B0036093AF0391
:101740004D81413009F086C28091AF039091B00382
:101750009C01265A3F4F253B310508F46EC297FF86
:1017600003C091958195910969E070E00E949F2ED8
:10177000665F7F4F24E6269FC001279F900D1124AE
:101780008C509E4F092E000CAA0BBB0B5AC229810C
:101790002E3109F4BDC09091EC018091ED012F3103
:1017A00008F4D5C29093E001809388038091EE0104
:1017B0008093BB032FCE3981353309F4EEC008F096
:1017C0007EC0323309F4D1C0A8F4333209F4D1C257
:1017D000393209F01FCE8091EC01809397038091FC
:1017E000ED01809396038091EE018093E101809159
:1017F000EF0116CF4981433309F4C4C0443309F0E3
:1018000009CE1091EC018091E60189838091E70176
:10181000082E000C990BE9818E1B9109E7FD939529
:10182000BC01990F880B990B0E94342B20E030E00B
:1018300044EB52E40E94102D6B017C012BEF21033D
:10184000B0011124072E000C880B990B0E94342B39
:101850004B015C013981632F330F770B880B990B98
:101860000E94342B2B013C0120E030E044EB52E499
:10187000C701B6010E94932B9B01AC01C301B201C9
:101880000E949E2C2B013C0145E0149FB0011124C5
:10189000072E000C880B990B0E94342BA701960190
:1018A0000E94932B9B01AC01C301B2010E949F2CAB
:1018B0009B01AC01C501B4010E949E2CC1C089816D
:1018C000853609F41DC2F8F4863409F4B8CE84369E
:1018D00009F0A0CD8091EC018093C6038091ED01C9
:1018E000E4E08E9FC00111249093DF038093DE0318
:1018F0008091EE01F4E08F9FC00111249093E103E9
:101900008093E00387CD99819856933008F082CD7B
:1019100080919003909191039093E3038093E2036D
:1019200080919203909193039093E5038093E40355
:1019300080919403909195039093E7038093E6033D
:1019400080918C0390918D039093DF038093DE034D
:1019500080918E0390918F039093E1038093E00335
:101960008091EC018093C60355CD8091EC01EAE0B3
:101970008E9FC00111249093C5038093C4030E94DD
:10198000DD0448CD2091EC0146EF42039001112483
:101990003093C5032093C403F2CF8091E40189837F
:1019A0008091E501082E000C990BE9818E1B9109AD
:1019B000E7FD9395BC01990F880B990B0E94342B7E
:1019C00020E030E044EB52E40E94102D6B017C01DA
:1019D0008091EC01F5E08F9FB0011124072E000CDF
:1019E000880B990B0E94342B4B015C012981622FDB
:1019F000220F770B880B990B0E94342B2B013C0193
:101A000020E030E044EB52E4C701B6010E94932B82
:101A10009B01AC01C301B2010E949E2C2B013C0131
:101A2000A5019401C701B6010E94932B9B01AC0153
:101A3000C301B2010E949F2CA50194010E949F2C1A
:101A40000E94822D7093B0036093AF0398CF2091D2
:101A5000E40129838091E501082E000C990B821B7B
:101A6000910927FD9395BC01990F880B990B0E9452
:101A7000342B20E030E044EB52E40E94102D6B0147
:101A80007C018091EC0135E0839FB0011124072E89
:101A9000000C880B990B0E94342B4B015C0149818F
:101AA000642F440F770B880B990BA6CF2091EC0184
:101AB0002093C6038091ED01809389039091EE01FC
:101AC0009093C703482F50E0911125C0EAE08E9F04
:101AD000C00111249093C5038093C403213011F5F4
:101AE00097FF03C09195819591094BE0489F900124
:101AF000499F300D1124C9018457954F092E000CC0
:101B0000AA0BBB0B80930B0190930C01A0930D01CA
:101B1000B0930E017FCC36EF3403C001359F900D9A
:101B20001124D8CF2230B9F49C0128533F4F2139DA
:101B3000314018F197FF03C0919581959109885C18
:101B4000910947E0489F9001499F300D1124C90138
:101B50008455924FD3CF233009F05CCC9C0128539D
:101B60003F4F2139314048F097FF03C0919581954F
:101B70009109885C910945E0E5CF8CEA9DE0A0E001
:101B8000B0E0C0CF8091ED019091EE019093E30120
:101B90008093E2018091EF018093C70366CD20918D
:101BA000E40129838091E501082E000C990B821B2A
:101BB000910927FD9395BC01990F880B990B0E9401
:101BC000342B20E030E044EB52E40E94102D4B0116
:101BD0005C013981632F330F770B880B990B0E94BF
:101BE000342B1B012C0120E030E044EB52E4C50112
:101BF000B4010E94932B9B01AC01C201B1010E9470
:101C00009E2C1B012C01A7019601C501B4010E9465
:101C1000932B9B01AC01C201B1010E949F2C6B016F
:101C20007C01B30190E080E00E94322B9B01AC016B
:101C3000C701B6010E949F2C7DCD84EC99E0A0E005
:101C4000B0E08093070190930801A0930901B0933D
:101C50000A01E0CB8D81823019F58091AF0390911C
:101C6000B0039C01265A3F4F253B3105A0F097FF5A
:101C700003C091958195910969E070E00E949F2EC3
:101C80006A5071092CE3269FC001279F900D1124F3
:101C90008856974F77CD88E998E0A0E0B0E0D1CFA3
:101CA0009D81933009F0B6CB8091AF039091B00342
:101CB0009C01265A3F4F253B3105A0F097FF03C0FA
:101CC00091958195910969E070E00E949F2E6A507C
:101CD000710922E3269FC001279F900D11248C5C7F
:101CE000974F50CD84E398E0A0E0B0E0AACF809178
:101CF000EC018093C6038091ED01809389038ACB28
:101D00008091EC018093C6038091ED0124E0829FD5
:101D1000C00111249093E3038093E2038091EE01CC
:101D200034E0839FC00111249093E5038093E40382
:101D30008091EF0144E0849FC00111249093E70358
:101D40008093E6038091F00180938A0363CB9093A4
:101D5000C6038093C7035ECB8091EC018093970309
:101D60008091ED01809396038091EE018093E101D3
:101D700051CB1092E00584E690E09093F7038093B6
:101D8000F6038091EC01809397038091ED0180939D
:101D9000E001EACF8981883C79F41092E0058091D6
:101DA000EC018093EF038091ED018093F00380912B
:101DB000EE018093F1032ECB9981993C81F48091BF
:101DC000EC018093E0058091ED019091EE01982760
:101DD000892798279093F7038093F6031BCBE9811B
:101DE000E63999F58091EC01F4E08F9FC001112450
:101DF00090938D0380938C038091ED0124E0829F6A
:101E0000C001112490938F0380938E038091EE0183
:101E100034E0839FC0011124909391038093900339
:101E20008091EF0144E0849FC001112490939303BB
:101E3000809392038091F001E4E08E9FC001112411
:101E40009093950380939403E5CAF981F73989F457
:101E50008091EC018093E6018091ED018093E40193
:101E60008091EE018093E7018091EF018093E5017D
:101E7000D1CA29812D3F19F420931101CBCA398190
:101E8000373F59F481E0809355038093BA0387EF7D
:101E90008093110180930001BDCA4981453F51F4EF
:101EA000409311018091EC0190E090930E02809399
:101EB0000D02B0CA8981893F19F480931101AACA21
:101EC0009981983F09F45BCDE981EC3F21F481E0F1
:101ED000809312019FCAF981FB3FB9F4109212015D
:101EE0001092FB031092FA031092FD031092FC0370
:101EF0001092FF031092FE0310920104109200044E
:101F0000109203041092020485CA29812A3F79F4B1
:101F100068EE73E080E090E00E94E60283B7817F84
:101F2000846083BF83B7816083BF889573CA39811A
:101F30003E3E59F488E198E00FB6F894A895809356
:101F400060000FBE90936000FFCF49814E3F11F5B6
:101F50000E9462098FEF809311018093000110921B
:101F600098031092C8031092BA031092AA03109219
:101F7000A9031092E0051092F1031092F003109261
:101F8000EF031092D8031092D9031092DA03109243
:101F9000EB039DCF0E9462098FEF80931101809324
:101FA0000001109298031092C8031092BA03109285
:101FB000AA031092A9032ECA1092DA0381E080933B
:101FC000D90341CA1092DA031092D90381E08093B9
:101FD000D8033BCA1092D5031092D60367CAF98181
:101FE000FF3F09F063CA8091EA0180931101809359
:101FF00000018E3F21F50E94620929812093110181
:102000002093000110929803109255031092C80378
:102010001092BA031092AA031092A9031092E0053D
:102020001092F1031092F0031092EF031092D80374
:102030001092D9031092DA031092EB0337CA8F3F44
:10204000A9F70E9462091092D8031092D903109246
:10205000DA031092EB03109298031092C8031092C7
:1020600055031092BA031092AA031092A9031ECA34
:102070001092AA031092A9038FEF809311010E947E
:10208000E6040E946209109298031092BA0310921B
:10209000C80310929E031092EB0310928B030895D5
:1020A0008F929F92AF92BF92CF92DF92EF92FF9268
:1020B0000F931F938C014B010E941803F801C080FD
:1020C000D180E280F3809B01AC012C193D094E09BF
:1020D0005F0969017A01B12CA12C8C149D04AE0416
:1020E000BF0480F4608371838283938381E01F91B6
:1020F0000F91FF90EF90DF90CF90BF90AF909F90A7
:102100008F90089580E0F3CF806480937C0086EC0C
:1021100080937A0080917A0086FDFCCF80917800D0
:10212000909179000895FC0101900020E9F7319722
:10213000AF01481B590BBC0184E194E00C94E00012
:102140008F929F92AF92BF920F931F93CF93DF9383
:10215000CDB7DEB7A1970FB6F894DEBF0FBECDBFE7
:1021600019A2423008F44AE08E010F5D1F4F842E01
:10217000912CB12CA12CA50194010E94B32EE62F25
:10218000B901CA01EA30F4F4E05DD801EE938D01A3
:10219000232B242B252B79F790E080E0109719F062
:1021A000CD010E949310A1960FB6F894DEBF0FBE2A
:1021B000CDBFDF91CF911F910F91BF90AF909F90B6
:1021C0008F900895E95CE1CF4F925F926F927F927A
:1021D0008F929F92AF92BF92CF92DF92EF92FF9237
:1021E0000F931F93CF936B017C01742EAC019B0165
:1021F0000E944A2E882399F082EA91E0CF911F91A4
:102200000F91FF90EF90DF90CF90BF90AF909F9095
:102210008F907F906F905F904F900C949310460139
:102220005701E894B7F82FEF3FEF4FE75FE7C5019D
:10223000B4010E944A2E81110DC02FEF3FEF4FE7EE
:102240005FE7C501B4010E942D2B18161CF486EA25
:1022500091E0D4CF2FEF3FEF4FE75FE4C701B60126
:102260000E94F72D18161CF48AEA91E0C7CF2FEFD1
:102270003FEF4FE75FECC701B6010E942D2B87FDB2
:10228000F3CF20E030E0A901C701B6010E942D2B59
:1022900010E000E087FF0AC06DE284E194E00E9454
:1022A00080018C01F7FAF094F7F8F094C0E060E058
:1022B00070E080E09FE37C1641F020E030E040E2F7
:1022C00051E40E94102DCF5FF6CFA70196010E9426
:1022D0009F2C2B013C010E94892D4B015C014AE09F
:1022E0000E94A0107C01E00EF11ECC23C1F1C501BB
:1022F000B4010E94322B9B01AC01C301B2010E94C8
:102300009E2C4B015C016EE284E194E00E9480010E
:10231000E80EF91EC15018F120E030E040E251E42F
:10232000C501B4010E94932B2B013C010E94892D11
:102330004B01B12CA12C4AE0C501B4010E94A010B0
:10234000E80EF91EC501B4010E94322B9B01AC01BD
:10235000C301B2010E949E2C4B015C01DBCFC7017F
:10236000CF911F910F91FF90EF90DF90CF90BF9092
:10237000AF909F908F907F906F905F904F90089557
:102380008F929F92AF92BF92CF92DF92EF92FF9285
:10239000CF934B015C0169017A0120E030E0A90193
:1023A000C701B6010E94F72D18160CF08AC0C701AC
:1023B000B6010E94822DC62F6091AF037091B003C9
:1023C000072E000C880B990B0E94342B6B017C01AB
:1023D0002DEC3CEC4CEC5DE30E949F2CA50194019C
:1023E0000E942D2B18160CF470C0C0939F031092FE
:1023F000A2031092A30381E080939E0382E0809366
:10240000A4038AEF8093A0038093A10380916C03BF
:1024100090916D032091DC013091DD01281739077F
:1024200009F06EC080916A0390916B032091DA01EC
:102430003091DB012817390709F062C08091A903A8
:102440009091AA0301969093AA038093A903809187
:102450006C0390916D039093DD018093DC0180917A
:102460006A0390916B039093DB018093DA01809172
:10247000A9039091AA038B3F9105CCF0C0939F03D1
:102480001092A2031092A3030E946C091092AA0357
:102490001092A9038FEF8093110110929E030E9466
:1024A000E6040E9462091092BA031092C803CF9109
:1024B000FF90EF90DF90CF90BF90AF909F908F9064
:1024C0000895C701B601905874CF2DEC3CEC4CEC4C
:1024D0005DE3C701B6010E949E2CA50194010E94F4
:1024E000F72DC0939F031092A2031092A30387FDC0
:1024F00004C081E080939E0382CF0E946C0986CF46
:102500001092AA031092A903A2CF0F931F93CF9307
:10251000DF93EC0188819981009759F02A813B81F2
:102520002617370730F081E0DF91CF911F910F918F
:1025300008958B016F5F7F4F0E941430009759F010
:10254000998388831B830A832C813D81232B59F730
:10255000FC011082E8CF80E0E7CFFC01808191810F
:10256000009711F00C948B2F0895EF92FF920F9328
:102570001F93CF93DF93EC017B01198218821B829A
:102580001A821D821C82FB0101900020E9F731971D
:102590008F01061B170BB8010E9485122881398113
:1025A000811113C02115310519F0C9010E948B2F2B
:1025B000198218821D821C821B821A82DF91CF91A0
:1025C0001F910F91FF90EF9008951D830C83B70129
:1025D000C901DF91CF911F910F91FF90EF900C9463
:1025E000E3302F923F924F925F926F927F928F9241
:1025F0009F92AF92BF92CF92DF92EF92FF920F9392
:102600001F93CF93DF93CDB7DEB765970FB6F894DE
:10261000DEBF0FBECDBFDC015D96EC91EE2309F469
:1026200098C118013D8B2C8B488B598B6A8B7B8B07
:102630002C010E9418036F83788789879A87F2019B
:1026400080819181A281B3812F81388549855A8506
:10265000281B390B4A0B5B0BCA01B9010E94322BB4
:102660006B877C878D879E87288939894A895B8912
:10267000D201D6966D917D918D919C91D9970E94B2
:102680009E2C4B015C01AC019B016B857C858D858B
:102690009E850E94932BF2012489358946895789AA
:1026A0000E949F2C3B016C01CB01D601F201848B6F
:1026B000958BA68BB78BF48DFF87FF23A9F12DECAB
:1026C0003CEC4CE85FE3D2019E966D917D918D913B
:1026D0009C91D1970E94932B7B018C019B01AC01B3
:1026E000B301C6010E942D2B87FD17C02DEC3CECD9
:1026F0004CE85FE3F20162A973A984A995A90E943D
:10270000932B7B018C019B01AC01B301C6010E949C
:10271000F72D181614F073018601C701D801F201D4
:10272000848B958BA68BB78BD20154962D913D91BE
:102730004D915C91579792966D917D918D919C9161
:1027400095970E94932B6B017C01F201268D378DAA
:1027500040A151A1C501B4010E94932B9B01AC0182
:10276000C701B6010E949F2C6B017C01D201189613
:102770002D913D914D915C911B97C501B4010E9433
:102780009E2C2B853C854D855E850E94102DF20187
:1027900026A137A140A551A50E94932B9B01AC0116
:1027A000C701B6010E949F2CD2019A962D913D91AE
:1027B0004D915C919D970E94102D3B016C01BF854E
:1027C000BB2309F4BCC0F201E6A4F7A400A911A937
:1027D0009701A8010E942D2B87FD16C0D201D29629
:1027E000EC90D297D396FC90D397D4960C91D49733
:1027F000D5961C919701A801B301C6010E94F72D3F
:10280000181614F073018601C701D801F201848300
:102810009583A683B78380869186A286B3862F810F
:10282000388549855A852083318342835383EC89D7
:10283000FD8984819581892B09F463C060ED71E085
:10284000808191810E94DA30892B09F05AC01A8266
:1028500019821C821B821E821D82D1010D911C9146
:10286000119701151105C1F01496ED90FC90B70178
:10287000CE0101960E94851229813A81811162C0A0
:102880002115310519F0C9010E948B2F1A82198276
:102890001E821D821C821B8242E0688979898A8996
:1028A0009B890E94E4108D819E81892BA1F066ECAA
:1028B00071E089819A810E94DA30892B61F48EEA75
:1028C00091E00E949310F201648175818681978165
:1028D00042E00E94E4108EEA91E00E949310D2013F
:1028E000D6966D917D918D919C91D99742E00E94F1
:1028F000E41080EB91E00E949310CE0101960E94BB
:10290000AD12F201648175818681978165960FB65B
:10291000F894DEBF0FBECDBFDF91CF911F910F9115
:10292000FF90EF90DF90CF90BF90AF909F908F90EF
:102930007F906F905F904F903F902F900895CB01C4
:10294000D60164CFFE82ED82B801C9010E94E33056
:10295000A3CF60E070E0CB01D9CFCF92DF92EF92AE
:10296000FF920F931F93CF93DF9300D000D000D03E
:102970001F92CDB7DEB7CE0101967C0187E0F7014B
:1029800011928A95E9F767010AE010E0C8010E94F8
:10299000512CF60181936F010F5F1F4F003111051C
:1029A000A9F763EB71E0C7010E94DA30892B09F4C3
:1029B00040C0E9E2F3E08DE493E040E050E060E8FD
:1029C0007FE341935193619371938E179F07C9F7EA
:1029D0008AEB91E00E94931080EB91E00E949310AB
:1029E00009E213E0F80161917191819191918F0158
:1029F00042E00E94E41082EC91E00E949310F3E028
:102A00000D341F0779F782EB91E00E94931080EB61
:102A100091E027960FB6F894DEBF0FBECDBFDF91D1
:102A2000CF911F910F91FF90EF90DF90CF900C947A
:102A3000931089E2E82E83E0F82E0EE110E0C80141
:102A40000E94512CF70181937F010F5F1F4F0234C9
:102A50001105A9F7BDCFCF93DF9385ED8093BC001F
:102A60008091340290913502A0913602B0913702E4
:102A70000796A11DB11D23E0B695A795979587955B
:102A80002A95D1F72091BC0024FD03C01092BC020E
:102A900036C04091340250913502609136027091F7
:102AA0003702452B462B472B69F30097A105B1054B
:102AB00041F02AE22A95F1F700C00197A109B10976
:102AC000E1CF8091330291E0909332028823B9F0F4
:102AD000C091B800D091BA008091BC008A7B8093ED
:102AE000BC0060E082E10E94080260E083E10E9495
:102AF00008020E946803D093BA00C093B800DF9127
:102B0000CF9108951F920F920FB60F9211242F9319
:102B10003F934F935F936F937F938F939F93AF9365
:102B2000BF93EF93FF9384E194E00E945E01FF91D5
:102B3000EF91BF91AF919F918F917F916F915F9135
:102B40004F913F912F910F900FBE0F901F901895AE
:102B50001F920F920FB60F9211242F938F939F9372
:102B6000EF93FF93E0912404F09125048081E0919C
:102B70002A04F0912B0482FD1BC0908180912D04CA
:102B80008F5F8F7320912E04821741F0E0912D0406
:102B9000F0E0EC5EFB4F958F80932D04FF91EF9159
:102BA0009F918F912F910F900FBE0F901F901895AE
:102BB0008081F4CF1F920F920FB60F9211242F93A2
:102BC0003F938F939F93AF93BF9380910A0390910C
:102BD0000B03A0910C03B0910D033091090323E086
:102BE000230F2D3758F50196A11DB11D2093090320
:102BF00080930A0390930B03A0930C03B0930D03EF
:102C000080910E0390910F03A0911003B0911103D6
:102C10000196A11DB11D80930E0390930F03A09305
:102C20001003B0931103BF91AF919F918F913F918A
:102C30002F910F900FBE0F901F90189526E8230F2D
:102C40000296A11DB11DD2CF1F920F920FB60F9207
:102C500011242F933F934F935F936F937F938F93A1
:102C60009F93AF93BF93EF93FF938091070390914E
:102C700008038093B2008091030390910403A09114
:102C80000503B09106030196A11DB11D80930303B6
:102C900090930403A0930503B0930603809103036C
:102CA00090910403A0910503B09106038091020363
:102CB000811110C081E080930203109203031092EF
:102CC00004031092050310920603F0E0E0E009957A
:102CD00010920203FF91EF91BF91AF919F918F915D
:102CE0007F916F915F914F913F912F910F900FBE08
:102CF0000F901F9018951F920F920FB60F921124EC
:102D00002F933F934F935F936F937F938F939F93F3
:102D1000AF93BF93EF93FF938091B900887F803684
:102D200009F44AC0F0F5883209F4A7C018F58031DB
:102D300009F49BC0B8F4882309F4F9C0883009F479
:102D400094C0FF91EF91BF91AF919F918F917F912F
:102D50006F915F914F913F912F910F900FBE0F9008
:102D60001F901895883109F488C0803251F78093FC
:102D7000BB0214C0803409F49DC040F48033B9F321
:102D80008833F9F68093BB0285ECB0C0803509F436
:102D900085C0883509F496C0883499F60E942B15B1
:102DA000D0CF883909F48CC038F5883729F050F431
:102DB000883611F0803729F683E08093BC021092A8
:102DC000BA0257C0883809F47BC0803919F08038BE
:102DD00009F0B7CF8091BA02803408F071C0E09159
:102DE000BA0281E08E0F8093BA028091BB00F0E0BE
:102DF000E658FD4F80833DC0803B39F0E0F4803AD7
:102E000009F479C0883A09F09CCF84E08093BC0231
:102E10001092790210927802E0911403F091150358
:102E200009958091780281110FC081E0809378022A
:102E30001092380209C0803C09F4A6CF883C09F4FE
:102E4000A3CF883B09F07DCFE091790281E08E0F1E
:102E500080937902F0E0E85CFD4F80818093BB00B5
:102E6000909179028091780229C08091010380932A
:102E7000BB0085EC8093BC0064CF909100038091EF
:102E8000FF02981758F5E091000381E08E0F8093C0
:102E90000003F0E0E154FD4F8081E9CFE0910003B1
:102EA00081E08E0F809300038091BB00F0E0E1543D
:102EB000FD4F8083909100038091FF029817C8F224
:102EC00085E8D8CFE091000381E08E0F8093000366
:102ED0008091BB00F0E0E154FD4F80838091BE0201
:102EE00081115CCF81E08093BD0284EA8093BC00B5
:102EF0001092BC0226CF85EC8093BC001092BC02DD
:102F00008091BA02803430F4E091BA02F0E0E658E1
:102F1000FD4F10826091BA0270E0E0911203F091CF
:102F200013038AE792E009951092BA020ACF109231
:102F3000BB0234CF1F920F920FB60F9211242F9322
:102F40003F934F935F936F937F938F939F93AF9331
:102F5000BF93CF93DF93EF93FF9380919E038823DA
:102F6000D9F1C0911002D0911102D7FD73C08091A8
:102F70009F03082E000C990BC817D9070CF06AC0E4
:102F80008091A403823009F059C04091A00361E010
:102F900081E00E943A074091A10361E082E00E9433
:102FA0003A076091A203662329F04091A00381E0D3
:102FB0000E943A076091A303662329F04091A10380
:102FC00082E00E943A072196CF31D1050CF045C02E
:102FD000D0931102C09310029091EE0380910F02E2
:102FE000891708F03FC02C9A9091EC0380910F0252
:102FF0008917D0F5439A9091ED0380910F028917BC
:10300000A8F52D9A80910F028F5F80930F028B306D
:1030100010F010920F02FF91EF91DF91CF91BF91CD
:10302000AF919F918F917F916F915F914F913F9160
:103030002F910F900FBE0F901F901895813009F0BF
:10304000B0CF4091A00362E00E943A074091A103F3
:1030500062E0A4CF0E946209B6CF109211021092D2
:103060001002BACF2C98C0CF4398C5CF2D98CACFA5
:103070001F920F920FB60F9211242F933F934F93ED
:103080005F936F937F938F939F93AF93BF93EF93D0
:10309000FF9399B1292F30E0F901F595E795F59562
:1030A000E7954E2F417050E0FA01EE0FFF1F94FBA1
:1030B000442740F94E2B8091DF01841751F1E091B4
:1030C000DF0184E0E89FF0011124E75EFE4FE40F8A
:1030D000F11D8081E82F082E000CFF0BA0916C03DE
:1030E000B0916D03AE0FBF1FB0936D03A0936C033F
:1030F000A0914F03B0915003EA0FFB1FF0935003D0
:10310000E0934F034093DF01881F8827881F809337
:103110000C0283E0359527958A95E1F7622F61705F
:1031200070E0660F771F991F9927991F892F862BAB
:103130009091DE01981751F1E091DE0194E0E99F52
:10314000F0011124E75EFE4FE80FF11D9081292F59
:10315000092E000C330B40916A0350916B03420F10
:10316000531F50936B0340936A0340914D0350915A
:103170004E03240F351F30934E0320934D0380934D
:10318000DE01991F9927991F90930B02FF91EF91F0
:10319000BF91AF919F918F917F916F915F914F916F
:1031A0003F912F910F900FBE0F901F901895E4E163
:1031B000F4E01382128288EE93E0A0E0B0E0848312
:1031C0009583A683B78322E831E03183208325EC01
:1031D00030E03587248724EC30E03787268720ECE1
:1031E00030E0318B208B21EC30E0338B228B22ECD2
:1031F00030E0358B248B26EC30E0378B268B118E1C
:10320000128E138E148EE1EBF4E01382128284830B
:103210009583A683B78384E991E09183808380912D
:10322000E0058093DF050895CF93DF93CDB7DEB738
:1032300068970FB6F894DEBF0FBECDBF789484B503
:10324000826084BD84B5816084BD85B5826085BDA2
:1032500085B5816085BD80916E00816080936E0030
:103260001092810080918100826080938100809122
:1032700081008160809381008091800081608093D3
:1032800080008091B10084608093B1008091B00093
:1032900081608093B00080917A00846080937A008E
:1032A00080917A00826080937A0080917A008160B8
:1032B00080937A0080917A00806880937A001092DF
:1032C000C100F8941092BC001092BA007894239A2E
:1032D0002B98209A2898559A569A219A229A0E94B9
:1032E0006209289A24983B9825982C9843982D9801
:1032F00010921903109218031092170310921603DC
:103300000E9468038AEA90E0909315038093140367
:1033100086EB90E0909313038093120380E88093F0
:10332000BA0085EA99E090931B0380931A038FEC0F
:1033300093E090931D0380931C0388E48093B8006E
:10334000E0912404F091250482E08083E091200440
:10335000F09121041082E0912204F091230480E195
:10336000808310922C04E0912804F091290486E0D7
:103370008083E0912604F09127048081806180831E
:10338000E0912604F0912704808188608083E09199
:103390002604F0912704808180688083E0912604D0
:1033A000F091270480818F7D808381EF90E00E94DF
:1033B000CD0142E067ED73EA80E190E40E94E41001
:1033C00080EB91E00E94931086ED90E00E94CD0189
:1033D00080EB91E00E9493100E94AD148AB1837635
:1033E0008AB98BB18C698BB9F8948091680084603C
:1033F0008093680080916D008C6980936D00789453
:10340000EEE1F3E089E293E011928E179F07E1F776
:1034100085EA95E00E94240380E090E0A0E7B2E412
:103420008093C3059093C405A093C505B093C605CA
:1034300083E393E3A3E3B0E48093C7059093C805C7
:10344000A093C905B093CA051092CB051092CC0584
:103450001092CD051092CE05812C912C46E1A42E20
:1034600043ECB42E8092D3059092D405A092D5055A
:10347000B092D605C12CD12C56E1E52E53E4F52EA1
:10348000C092D705D092D805E092D905F092DA051E
:1034900011E01093C1058BE695E00E94240380E0C3
:1034A00090E0A0E2B1E48093890590938A05A0930F
:1034B0008B05B0938C0580E090E0A0E0BFE38093A3
:1034C0008D0590938E05A0938F05B093900580E0B5
:1034D00090E0A0ECBFE38093910590939205A093B8
:1034E0009305B093940580E090E0A0E4B0EC809365
:1034F000990590939A05A0939B05B0939C0580E055
:1035000090E0A0E4B0E480939D0590939E05A09385
:103510009F05B093A0051093870581E395E00E9475
:10352000240380E090E0A0EAB1E480934F059093FB
:103530005005A0935105B09352058DEC9CECACE482
:10354000BEE38093530590935405A0935505B09323
:103550005605109257051092580510925905109271
:103560005A0580E090E0A0EAB3EC80935F05909369
:103570006005A0936105B093620580E090E0A0EA49
:10358000B3E48093630590936405A0936505B093BD
:10359000660510934D0587EF94E00E942403412CAB
:1035A000512C60E5662E61E4762E4092150550920E
:1035B000160560921705709218052AE939E949E164
:1035C0005FE32093190530931A0540931B05509330
:1035D0001C0510921D0510921E0510921F051092D9
:1035E00020058092250590922605A0922705B0928D
:1035F0002805C0922905D0922A05E0922B05F09269
:103600002C05109313058DEB94E00E942403409247
:10361000DB045092DC046092DD047092DE048AE9DF
:1036200099E9A9E1BFE38093DF049093E004A093BC
:10363000E104B093E2041092E3041092E4041092C7
:10364000E5041092E6048092EB049092EC04A092C0
:10365000ED04B092EE04C092EF04D092F004E09238
:10366000F104F092F2041093D9040E9418036093BD
:103670006E0370936F03809370039093710382E0E5
:103680008093B00095E09093B1009CE79093B300D5
:1036900080937000789474E1272E312C809155032B
:1036A000882309F44EC08091980381110BC081E0FA
:1036B0008093980380935403109253031092520303
:1036C0001092510380915403813009F060C30E942D
:1036D000DD0482E0809354030E9418036093B503D5
:1036E0007093B6038093B7039093B803009152038D
:1036F00010E0F801EB50FF4FF490809151034F2DF3
:103700008823B1F0000F111F000F111F075D1C4F20
:103710006F2D70E090E080E00E94342BD8012D9155
:103720003D914D915C910E94932B0E94892D462FD3
:1037300062E081E00E943A074F2D61E082E00E9442
:103740003A070E94180300916E0310916F032091B5
:10375000700330917103AB01BC01401B510B620B34
:10376000730B80910F0190911001092E000CAA0B90
:10377000BB0B84179507A607B70708F071C20E9414
:10378000180360936E0370936F038093700390939C
:103790007103F89460916C0370916D0300916A035A
:1037A00010916B0310926D0310926C0310926B03D7
:1037B00010926A037894072E000C880B990B0E94D4
:1037C000342B20E030E04CED52E40E94932B20E0BB
:1037D00030E843E954E40E94102D2B013C01B8016C
:1037E000110F880B990B0E94342B20E030E04CED38
:1037F00052E40E94932B20E030E843E954E40E9415
:10380000102D4B015C0173016201F7FAF094F7F897
:10381000F0942AE037ED43EA5CE3C701B6010E9469
:10382000102D6093660370936703809368039093F1
:1038300069032AE037ED43EA5CE3C501B4010E9465
:10384000102D6093620370936303809364039093DD
:103850006503A5019401C701B6010E949E2C20E0DA
:1038600030E048E952E40E94102D6B017C0121EE0A
:103870003EE245E652E40E94932B209110043091E1
:10388000110440911204509113040E949F2C6D87E3
:103890007E878F87988B60931004709311048093B8
:1038A00012049093130420915E0330915F034091C2
:1038B000600350916103C701B6010E949F2C698B80
:1038C0007A8B8B8B9C8B60935E0370935F038093EA
:1038D000600390936103A3019201C501B4010E94AA
:1038E0009E2C20E030E040E05FE30E94932B4B01F0
:1038F0005C01A7019601C701B6010E94932B6B01E1
:103900007C01AC019B010E94932B6D8B7E8B8F8B76
:10391000988F20E030E040EC51E4C701B6010E94EE
:10392000102D9B01AC0160E070E080E09FE30E94FD
:103930009E2C2B013C0120E030E044E354E46D89EF
:103940007E898F89988D0E94102D9B01AC01C30147
:10395000B2010E949F2C2B013C012D893E894F8989
:10396000588DC701B6010E94932B20E030E84DE14D
:1039700057E40E94102D9B01AC01C301B2010E94CB
:103980009E2C6B017C01A5019401C501B4010E942C
:10399000932B9B01AC010E949F2C9B01AC01C701A2
:1039A000B6010E94932B6B017C0120E030E0A9015D
:1039B000C501B4010E94F72D87FD99C3C701B60167
:1039C0000E940A2E6B017C01A70196016091AB0356
:1039D0007091AC038091AD039091AE030E949F2C37
:1039E0006093AB037093AC038093AD039093AE03ED
:1039F00069897A898B899C890E940B2D4B015C0116
:103A000069897A898B899C890E94FC2D2B013C0154
:103A1000A5019401C701B6010E94932B9B01AC0143
:103A200060915A0370915B0380915C0390915D03F8
:103A30000E949F2C60935A0370935B0380935C03F6
:103A400090935D03A3019201C701B6010E94932BDD
:103A50009B01AC016091560370915703809158030C
:103A6000909159030E949F2C6093560370935703C3
:103A7000809358039093590380911101813049F04C
:103A8000843039F08F3F29F08A3119F08D3109F0F7
:103A900039C31092DB051092DC051092DD051092FF
:103AA000DE0564EC71E0CE0107960E94B5126EEC63
:103AB00071E0CE0101960E94B5128E01095F1F4F81
:103AC0009E012F5F3F4F4D855E856F85788985EA22
:103AD00095E00E94F1126B017C01C092A503D09287
:103AE000A603E092A703F092A803CE0101960E94DC
:103AF000AD12C8010E94AD1220E030E046E153E46F
:103B0000C701B6010E94102D6B017C0120E030E05E
:103B1000A9010E94F72D181624F0F7FAF094F7F88F
:103B2000F094C092C003D092C103E092C203F0921D
:103B3000C3036091C4037091C503072E000C880B6A
:103B4000990B0E94342B60936705709368058093EE
:103B5000690590936A0564EC71E0CE0107960E94B6
:103B6000B5126EEC71E0CE0101960E94B512409143
:103B7000AB035091AC036091AD037091AE038E0125
:103B8000095F1F4F9E012F5F3F4F81E395E00E9429
:103B9000F1126B017C01CE0101960E94AD12C801A9
:103BA0000E94AD12C0922D05D0922E05E0922F05F5
:103BB000F092300564EC71E0C8010E94B5126EEC21
:103BC00071E0CE0101960E94B512409166035091BA
:103BD000670360916803709169039E012F5F3F4FF7
:103BE00087EF94E00E94F1120E94822D7093BD0332
:103BF0006093BC03CE0101960E94AD12C8010E94E1
:103C0000AD12C092F304D092F404E092F504F09265
:103C1000F60464EC71E0C8010E94B5126EEC71E02C
:103C2000CE0101960E94B512409162035091630348
:103C300060916403709165039E012F5F3F4F8DEB90
:103C400094E00E94F1120E94822D7093BF03609352
:103C5000BE03CE0101960E94AD12C8010E94AD12B2
:103C60008091C803882309F458C40E9418036D8703
:103C70007E878F87988B109111018EEC810F823097
:103C800008F0D3C33092100120920F0181E080939D
:103C9000BA036091C4037091C503072E000C880B12
:103CA000990B0E94342B6B017C010091050110914E
:103CB00006010130110509F06AC28091100490914B
:103CC0001104A0911204B091130480938403909383
:103CD0008503A0938603B093870310920804109283
:103CE000090410920A0410920B041092040410921A
:103CF000050410920604109207040E94C10260930A
:103D00000C0470930D0480930E0490930F04109292
:103D1000AB031092AC031092AD031092AE0320E0FF
:103D200030E0A901C701B6010E94F72D87FF02C04C
:103D30000FEF1FEF10938303009382031092810310
:103D40001092800321E030E03093040120930301BE
:103D500010920601109205018091B1039091B20377
:103D6000A091B303B091B4032D853E854F8558894A
:103D7000281B390B4A0B5B0BDA01C901853C9940C2
:103D8000A105B10508F4C5C30E943810C2C3823032
:103D900009F069C164EF71E085EB93E00E94501077
:103DA000882309F4CECC0E946209F0905203E0907F
:103DB000510380914F039091500360914F03709194
:103DC0005003181619061CF0719561957109072E9C
:103DD000000C880B990B0E94342B2B013C01809125
:103DE0004D0390914E0360914D0370914E03181650
:103DF00019061CF0719561957109072E000C880B4E
:103E0000990B0E94342B4B015C01AC019B01C30157
:103E1000B2010E94F72D18160CF0BBC0A501940149
:103E2000C301B2010E94102D0F2D10E0E1100BC054
:103E3000F801EE0FFF1FEE0FFF1FE75DFC4F6083E1
:103E4000718382839383F801EB50FF4FE491EE205E
:103E500009F405C1809153038F5F809353038091D0
:103E60004F039091500360914F03709150031816C7
:103E700019061CF0719561957109072E000C880BCD
:103E8000990B0E94342B6D877E878F87988B80914A
:103E90004D0390914E0360914D0370914E0318169F
:103EA00019061CF0719561957109072E000C880B9D
:103EB000990B0E94342B2B013C012D853E854F85AB
:103EC00058890E94102D4B015C0128E431EE4AE72D
:103ED0005FE30E942D2B87FD0BC02CE53FE842E8F5
:103EE0005FE3C501B4010E94F72D18160CF0A8C0BD
:103EF000A501940160E070E080E89FE30E949E2CA1
:103F00006B017C0120E030E0A9010E94F72D18161A
:103F100024F0F7FAF094F7F8F094000F111F000F57
:103F2000111F075D1C4FF80180809180A280B38033
:103F30002D853E854F855889C301B2010E94F72D1A
:103F40002DEC3CEC4CEC5DE318160CF053C0C701B3
:103F5000B6010E94F72D2FE832EC45E75DE3181615
:103F60000CF12DEC3CEC4CE45DE3C701B6010E9482
:103F7000F72D18169CF42FE832EC45EF5CE3C501F1
:103F8000B4010E949F2CF801608371838283938324
:103F900013C0A3019201C501B40144CF2AE037ED5B
:103FA00043E25CE3C501B4010E949F2CD8016D93EC
:103FB0007D938D939C93139780915303863060F08B
:103FC00010925303809152038F5F80935203893084
:103FD00019F483E08093540380915403833019F0E3
:103FE00081E0809354036CEB72E080E090E00E94EB
:103FF000E602A7CBC701B6010E94F72D2FE832ECED
:1040000045E75DE31816BCF02DEC3CEC4CE45DE3B9
:10401000C701B6010E94F72D18164CF42FE832ECB8
:1040200045EF5CE3C501B4010E949E2CBFCF2AE09E
:1040300037ED43E25CE3C501B4010E949E2CA3CF9F
:104040001092530381E08F0D80935203109251031D
:10405000893009F0B1CF83E080935403ADCF81E084
:1040600080935103B9CF833061F584E0809354038A
:1040700019E2E12E13E0F12E0EE110E0D701DD9000
:104080007D01C8010E94512CD81621F06D2DC80168
:104090000E94592C0F5F1F4F0234110579F7B3EBC3
:1040A000EB2EB1E0FB2E0AE010E0F70161917F01F9
:1040B000C8010E94592C0F5F1F4F00311105A9F74D
:1040C00040CB843009F03DCB85E0809354030E94BF
:1040D000AD148FEF809311010E94E6040E946209E3
:1040E0001092BA0310925503109298032ACBC7017D
:1040F000B6010E940A2E6B017C01F7FAF094F7F8E2
:10410000F09462CC9EEF980F923028F08B3119F02A
:10411000863409F00ECD6091AF037091B003072E85
:10412000000C880B990B0E94342B6093A1057093AF
:10413000A2058093A3059093A40564EC71E0CE01E1
:1041400007960E94B5126EEC71E0CE0101960E94B6
:10415000B5128E01095F1F4F9E012F5F3F4F4D85A6
:104160005E856F8578898BE695E00E94F1126093F9
:10417000A5037093A6038093A7039093A803CE0191
:1041800001960E94AD12C8010E94AD12D2CC012B43
:1041900009F0E2CD2091AB033091AC034091AD0327
:1041A0005091AE030E949E2C6B017C014B015C017F
:1041B000E894B7F82DEC3CEC4CEC5DE3C501B401A0
:1041C0000E94F72D87FD15C06091820370918303D3
:1041D000072E000C880B990B0E94342BA701960127
:1041E0000E94932B20E030E0A9010E942D2B18168D
:1041F0006CF00E9462090E94E60441E050E0509396
:104200000601409305010E943810A6CD809103015C
:1042100090910401009180031091810302331105F4
:1042200044F4080F191F033311055CF002E310E09A
:1042300008C00233110529F0081B190B02331105C0
:10424000ACF310938103009380036AE070E08CE785
:1042500093E00E945010882309F47ECD2DEC3CECB5
:104260004CEC5DE3C501B4010E942D2B87FF03C018
:104270000E94620971CD0E94C10280900C0490904E
:104280000D04A0900E04B0900F04681979098A09F2
:104290009B090E94322B20E034E244E759E40E945B
:1042A000102D2B013C0120E030E0A9010E942D2BB4
:1042B000181644F0ACEA4A2EA5EC5A2EA7E26A2E54
:1042C000A7E37A2E0E94C10260930C0470930D0440
:1042D00080930E0490930F042091080430910904F8
:1042E00040910A0450910B04C701B6010E949F2C13
:1042F0004B015C018092080490920904A0920A0488
:10430000B0920B04209104043091050440910604FE
:1043100050910704C701B6010E949E2CC09204046C
:10432000D0920504E0920604F0920704A3019201E2
:104330000E94102D2DEC3CEC4CE45DE30E94932B8D
:10434000698B7A8B8B8B9C8B26E636E646EA5FE39D
:10435000C701B6010E94932B9B01AC0169897A8940
:104360008B899C890E949F2C6B017C012FE632E196
:1043700043E85AE3C501B4010E94932BA3019201C3
:104380000E94932B9B01AC01C701B6010E949F2C98
:104390000E94822D653B5FEF7507D4F16C34710587
:1043A000E4F561157105E1F0ACF121E030E0029F28
:1043B000C001039F900D129F900D1124860F971F2F
:1043C000EE24E39465EB7FEF853BAFEF9A0754F162
:1043D000BC018C34910514F06BE470E097FD20C0B3
:1043E000F2E0EF2EFF24F3948B0177FF03C01195C9
:1043F00001951109C8010E948F06482F6E2D81E09A
:104400000E943A07402F6F2D82E00E943A07A4CC09
:1044100065EB7FEF2FEF3FEFCACF6BE470E0C5CFC6
:10442000EE24E394E2E0FE2EDFCF8CEC810F8230AD
:1044300008F03DC13092100120920F0181E080937D
:10444000BA0380910101909102018230910509F037
:1044500098C06091AF037091B003072E000C880BD9
:10446000990B0E94342B209110043091110440913B
:104470001204509113040E949F2C60937803709350
:10448000790380937A0390937B030E94C102609327
:104490000C0470930D0480930E0490930F041092FB
:1044A00008041092090410920A0410920B0410924E
:1044B000040410920504109206041092070410924E
:1044C0007703109276030E94C10260937203709387
:1044D00073038093740390937503109202011092FA
:1044E00001018091B1039091B203A091B303B09107
:1044F000B4032D853E854F855889281B390B4A0BFF
:104500005B0BDA01C901813A9F40A105B10508F0B2
:104510003BCC8091C803811185C1109111011D31DF
:1045200009F0E0C53092100120920F011091C703ED
:104530008091C6030E94EA0580E398EF111102C042
:1045400080ED97E09093C5038093C403E090C0038F
:10455000F090C1030091C2031091C3032091BE03E8
:104560003091BF034091BC035091BD036091100492
:104570007091110480911204909113040E943F05E0
:1045800051C1009709F04FC00E94C102009172030F
:10459000109173032091740330917503601B710BAC
:1045A000820B930B0E94322B20E034E244E759E463
:1045B0000E94102D20E030E040E85FE30E942D2BA8
:1045C00087FF2AC000917603109177030A30110506
:1045D000ECF40F5F1F4F1093770300937603C090A6
:1045E0007803D0907903E0907A03F0907B036AE03F
:1045F00070E08CE793E00E945010882309F471CF9B
:10460000B701A601C8010E945D076BCF0A301105F2
:1046100011F301501109DFCF41E050E05093020146
:10462000409301015ECF019709F05BCF0E94C10268
:1046300000917203109173032091740330917503FC
:10464000601B710B820B930B0E94322B20E034E233
:1046500044E759E40E94102D20E030E040EC5FE395
:104660000E942D2B87FF16C0C0907803D09079034D
:10467000E0907A03F0907B036AE070E08CE793E0CF
:104680000E945010882309F42CCFB701A6018AE0BC
:1046900090E0B9CF0E9462090E94E60482E090E0B7
:1046A00090930201809301010E9438101ACF1130BB
:1046B00019F0143009F0E3C13092100120920F017B
:1046C00081E08093BA038090C0039090C103A090D2
:1046D000C203B090C3034091BE035091BF035A8BF5
:1046E000498BE090BC03F090BD03409010045090C3
:1046F0001104609012047090130410929E031E1413
:104700001F040CF03BC120E030E040E05FEBC30150
:10471000B2010E942D2B6E2D87FF14C0B701FF0C34
:10472000880B990B0E94342B6B017C01AC019B011F
:10473000C501B4010E94932BA70196010E949F2CF2
:104740000E94892D462F62E081E00E943A07898904
:104750009A89181619060CF03CC120E030E040E0C0
:104760005FE3C301B2010E94F72D69891816B4F402
:10477000A989BA89BD01BB0F880B990B0E94342B04
:104780006B017C01AC019B01C501B4010E94932B1C
:10479000A70196010E949F2C0E94892D462F61E05F
:1047A00082E00E943A07113009F040C16091C403D1
:1047B0007091C503072E000C880B990B0E94342BB7
:1047C00026E636E646E65FE30E94932B2091AB0394
:1047D0003091AC034091AD035091AE030E942D2B5C
:1047E00018160CF042C18091B1039091B203A091D0
:1047F000B303B091B4032D853E854F855889281B9E
:10480000390B4A0B5B0BDA01C901853C9940A105C4
:10481000B10508F0B9CA8091A9039091AA03C39782
:104820000CF0B2CA9091DA03911172C58091D9034C
:1048300081116EC58091D80381116AC51092EA0377
:104840001092E9038091D703811119C08091CB03A5
:104850009091CC03009761F09093CE038093CD03A9
:104860001092CC031092CB039093CA038093C90398
:1048700089E291E00E94740981E08093D7038091DE
:104880001201882349F12B9A8BE891E00197F1F707
:1048900080E00E9484109093FB038093FA0381E0F0
:1048A0000E9484109093FD038093FC0382E00E9499
:1048B00084109093FF038093FE0386E00E9484108F
:1048C000909301048093000487E00E9484109093E9
:1048D0000304809302042B988091EB038111CAC5D5
:1048E0001092EA031092E9038091E803811115C048
:1048F0008091DD0369E471E090E00E94EA080E9483
:10490000E6040E9462098091DB03811103C08FEFEE
:104910008093110181E08093E8031091E00580917C
:10492000DF05811731F01093DF051092F903109223
:10493000F8036091F6037091F70382EF93E00E9411
:104940005010882309F4DEC50E9418036093F20317
:104950007093F3038093F4039093F503173008F0FA
:10496000D1C5E12FF0E0E954FB4D0C94D52E762A09
:10497000982AB02AD02AE42AF92A162B40E063E0CC
:10498000E114F10409F4E0CEF194E194F10820E09F
:1049900030E040E05FE3C301B2010E94F72D6E2DCD
:1049A0001816A4F4B701FF0C880B990B0E94342B46
:1049B0006B017C01AC019B01C501B4010E94932BEA
:1049C000A70196010E949F2C0E94892D462F61E02D
:1049D000BBCEE989FA8940E063E0309709F4E0CE84
:1049E0007F01F194E194F10820E030E040E05FEBDA
:1049F000C301B2010E942D2B6E2D87FF14C0B70199
:104A0000FF0C880B990B0E94342B6B017C01AC01CD
:104A10009B01C501B4010E94932BA70196010E943E
:104A20009F2C0E94892D462F62E0BACE143009F0E7
:104A3000DACE6091C4037091C503072E000C880B79
:104A4000990B0E94342B26E636E646E65FE30E9489
:104A5000932B2091AB033091AC034091AD03509167
:104A6000AE030E94F72D87FDBECE8091A9039091E1
:104A7000AA0301969093AA038093A903B4CE8EEF64
:104A8000810F823008F050C03092100120920F0147
:104A900081E08093BA032091A5033091A603409151
:104AA000A7035091A80360911004709111048091A4
:104AB0001204909113040E94C0118091B10390914F
:104AC000B203A091B303B091B4032D853E854F8509
:104AD0005889281B390B4A0B5B0BDA01C901813A53
:104AE0009F40A105B10508F414CDC090A503D09056
:104AF000A603E090A703F090A80320E030E0A9010E
:104B0000C701B6010E94F72D18160CF02FC1C7017E
:104B1000B6010E94822D60939F031092A20310920F
:104B2000A3030E946C0930C98BEF810F8230B8F467
:104B300068EE73E0153049F420919D0384EF91E015
:104B4000289FB001299F700D112489E993E00E94EC
:104B50005010811119C981E08093BA03DACC193160
:104B600049F41092EB0310929E030E94620964EFD5
:104B700071E0EBCF1A3109F083C03092100120921E
:104B80000F0181E08093BA031091C7038091C6039F
:104B90000E94EA056091C4037091C503C090AB0305
:104BA000D090AC03E090AD03F090AE03072E000C64
:104BB000880B990B111149C00E94342B26E636E66A
:104BC00046E65FE30E94932B9B01AC01C701B6014F
:104BD0000E94F72D87FF4AC0E090C003F090C10308
:104BE0000091C2031091C3032091BE033091BF0313
:104BF0004091BC035091BD03609110047091110469
:104C000080911204909113040E943F058091B1039A
:104C10009091B203A091B303B091B4034D855E852A
:104C20006F857889481B590B6A0B7B0B80910B01B0
:104C300090910C01A0910D01B0910E018417950780
:104C4000A607B70708F0E7CD9FC80E94342B26E6D9
:104C500036E646E65FE30E94932B9B01AC01C70159
:104C6000B6010E942D2B18160CF4B6CF8091A90323
:104C70009091AA0301969093AA038093A903ACCFC5
:104C80001B3119F0163409F075C0309210012092D2
:104C90000F0181E08093BA038091C60390E08130D8
:104CA0009105D9F18230910509F45DC005E010E06D
:104CB0000397A9F12091A5033091A6034091A70382
:104CC0005091A80360911004709111048091120416
:104CD000909113040E94C0118091B1039091B2038E
:104CE000A091B303B091B4032D853E854F855889BB
:104CF000281B390B4A0B5B0BDA01C90140910701F4
:104D0000509108016091090170910A0148175907F3
:104D10006A077B0708F4E9CEFCCB03E010E06627C6
:104D20007727601B710B072E000C880B990B0E94D4
:104D3000342B6093990570939A0580939B0590930B
:104D40009C05B801110F880B990B0E94342B6093BE
:104D50009D0570939E0580939F059093A00581E02B
:104D600080938705A7CF04E010E0D9CFC701B60133
:104D70009058CFCE193271F511E01093BA0380919B
:104D80009803811118C000919D03109398030E940D
:104D900018036093B5037093B6038093B7039093A1
:104DA000B803011106C010939D031092970310924F
:104DB00096030E94850860919D0334E6639FB001CD
:104DC000112485EB93E00E945010882309F42ACD2A
:104DD0000C94C41E143609F087C08091DE039091B4
:104DE000DF03892BB1F48091E0039091E103892BDB
:104DF00081F480918C0390918D039093DF038093D5
:104E0000DE0380918E0390918F039093E103809352
:104E1000E0033092100120920F0140ED57E05093D3
:104E2000C5034093C40381E08093BA038091C60315
:104E30000E94EA05D0908B03D1101AC0E090C00305
:104E4000F090C1030091C2031091C3032091BE03EF
:104E50003091BF034091BC035091BD036091100499
:104E60007091110480911204909113040E943F05E7
:104E70008091A9039091AA0301969093AA0380932D
:104E8000A9032091E0033091E1036091DE0370916A
:104E9000DF034091000450910104883C9105A4F483
:104EA000461757070CF0BECC809102049091030482
:104EB000821793070CF0B6CC81E080938B0310929D
:104EC0009E030E94620925CB461757074CF4809138
:104ED0000204909103048217930714F40C94C41EE7
:104EE000D1100C94C41E9ECC153609F07BC0809165
:104EF000E2039091E303892B21F58091E4039091E3
:104F0000E503892BF1F48091E6039091E703892B67
:104F1000C1F480919003909191039093E303809367
:104F2000E20380919203909193039093E503809321
:104F3000E40380919403909195039093E703809309
:104F4000E6038091C6038093DC0381E08093EB034A
:104F50008093BA0310918A031123A9F090919803CA
:104F600091110CC0809398030E9418036093B503BD
:104F70007093B6038093B7039093B80354E6159FDC
:104F8000B00111241ECF64E670E089E993E00E942D
:104F90005010882309F446CC2091E2033091E303BA
:104FA0008091FE039091FF03281739070CF03ACC4B
:104FB0002091E4033091E5038091FC039091FD037F
:104FC000281739070CF02ECC2091E6033091E70327
:104FD0008091FA039091FB03281739070CF022CC3B
:104FE0000C94C41E1C3109F066C08091900390910E
:104FF00091039093E3038093E20380919203909155
:1050000093039093E5038093E4038091940390913C
:1050100095039093E7038093E60381E08093EB038D
:105020008093BA03609189038AE0689FB0011124DC
:105030007093C5036093C4038091C6038093DC031F
:10504000072E000C880B990B0E94342B6B017C01FE
:105050002DEC3CEC4CEC5DE30E94932B9B01AC01EE
:10506000C701B6010E949E2C2091AB033091AC0386
:105070004091AD035091AE030E942D2B18164CF0B9
:105080008091A9039091AA0301969093AA0380931B
:10509000A90364EF71E089E993E00E94501088232E
:1050A00009F47ACF8091A9039091AA03C3970CF4D5
:1050B00073CF0C94C41E1A3029F41092E00566E9EF
:1050C00070E043CD1F3109F0ADCB80918803809310
:1050D000E005A4E6B0E0B093F703A093F6030E94C6
:1050E000310645CD133221F080EE810F823058F425
:1050F0000E948508133209F095CB81E08093BB03B1
:105100000E9431068FCB1E3151F481E08093EB0376
:105110009091C6039093DC038093DB0383CB183616
:1051200009F059C08091C6030E942006F82E009114
:105130000004109101048091B9038130C1F464EF3F
:1051400071E085EB93E00E9450108823D9F082E053
:105150008093B9034F2D00FF07C061E081E00E94FA
:105160003A074F2D61E02DC062E081E026C0823019
:1051700069F464EF71E085EB93E00E9450108111B7
:105180001092B90381E08093BA034CCB20910204C2
:10519000309103048091E0039091E1034091DE039C
:1051A0005091DF030417150784F44F2D2817390792
:1051B000A4F681E08093B90361E00E943A074F2D85
:1051C00062E082E00E943A07DDCF4F2D62E02817AF
:1051D000390724F6CACF193681F58091C6030E949B
:1051E0002006182F80910204909103042091E0037F
:1051F0003091E10360910004709101044091DE035D
:105200005091DF03641775077CF4412F62E0821729
:1052100093072CF481E00E943A07412FA3CF81E04D
:105220000E943A07412FCCCF821793071CF4412FDD
:1052300061E0F0CF0E946209A5CF1A3609F0F2CAE8
:105240008091C6030E942006E82E0091FC03109175
:10525000FD03F090B9038FEF8F0D8330F0F46CEB0A
:1052600072E085EB93E00E945010882309F48ACF06
:10527000B3E0FB1202C011E000FF12E04E2D612FDF
:1052800081E00E943A074E2D612F82E00E943A078A
:1052900083E08F0D8093B90375CF8CEF8F0D68E598
:1052A00072E0833008F467CF8091E2039091E303CA
:1052B000801791078CF481E08093B90301E010E03E
:1052C0004E2D602F81E00E943A0762E00130110507
:1052D00009F061E04E2D75CF2091FE033091FF0360
:1052E0008091E4039091E5038217930714F482E020
:1052F000E3CF2091FA033091FB038091E603909174
:10530000E70302E010E082179307D4F683E0D4CFDE
:105310008091D503882309F47FC021E9280F2A3022
:1053200008F040C02FEF3FEF3093EA032093E903EA
:105330001092D70301E010E091110EC08091D903C3
:1053400002E010E0811108C08091D80310E000E075
:10535000882311F003E010E053E0000F111F5A956D
:10536000E1F7075D1E4F2091E9033091EA03809138
:10537000CB039091CC032817390761F09093CE03AB
:105380008093CD033093CC032093CB039093CA0337
:105390008093C9032115310509F043C0C8010E945B
:1053A00074096DCA20EB280F2E3118F42EEF3FEF51
:1053B000BBCF28ED280F283218F42DEF3FEFB4CFE4
:1053C0002CEF3FEF883208F4AFCF28E8280F2A30BF
:1053D00038F4E1E0F0E0F093EA03E093E903A8CFCA
:1053E0002EE7280F2E3118F422E030E09DCF20E682
:1053F000280F283238F443E050E05093EA034093FA
:10540000E90396CF885C883238F4A4E0B0E0B0932A
:10541000EA03A093E9038CCF1092EA031092E90308
:1054200087CFC9010496099708F029CAC90137FF37
:1054300004C088279927821B930B0197F12CE12C3C
:1054400037FF03C07C0190E080E0880F991FF801CE
:10545000E80FF91F408162E081E00E943A07EE0CFC
:10546000FF1C0E0D1F1DF801408161E082E00E94CB
:105470003A0705CA8091DD034091FE035091FF0376
:105480002091E2033091E303421753074CF58E7FDE
:105490004091FA035091FB032091E6033091E7031A
:1054A00042175307FCF48D7F4091FC035091FD039C
:1054B0002091E4033091E50342175307ACF48B7F4E
:1054C0008093DD036091DC03F8E06F9FB00111244D
:1054D000675B7E4F90E00E94EA081092E8031DCAC5
:1054E0008160D6CF8260E0CF8460EACF8091F10303
:1054F0009091F0032091EF032093EE039093ED033E
:105500008093EC0362E070E080E090E00E94E602AD
:1055100080E090E0892B11F40C944E1B0E944A010C
:10552000882311F40C944E1B0E9400000C944E1B17
:105530008091F9039091F1032091F0033091EF03F2
:10554000882319F090E020E030E03093EE032093C0
:10555000ED039093EC0391E089278093F903D2CF78
:105560008091F903982F9D7FC1F49091F1032091D0
:10557000F003882319F030E0823011F43091EF030A
:105580003093EE032093ED039093EC0390E00196AB
:105590006AE070E00E949F2EE0CF90E020E0EBCF29
:1055A0008091F903882349F08FEF0E947A06809159
:1055B000F8038B3024F081E0D0CF81E0F6CF811169
:1055C000A1CF1092F9039ECF8091F903811108C0F9
:1055D00081E00E947A068091F8038B3064F792CFC5
:1055E0001092EE031092ED031092EC031092F80368
:1055F000E8CF8091F903811109C08FEF0E947A06EC
:105600008091F80318160CF47DCFD5CF8091F1036B
:105610009091F0032091EF032093EE039093ED031C
:105620008093EC038AE08093F803CBCF8091F90359
:1056300090E0FC01EE0FFF1FE80FF91FE759FE4F46
:105640002281318140814093EE033093ED0320931A
:10565000EC03019667E070E09DCF0E946F2B08F489
:1056600081E00895E89409C097FB3EF490958095F9
:10567000709561957F4F8F4F9F4F9923A9F0F92F18
:1056800096E9BB279395F695879577956795B79596
:10569000F111F8CFFAF4BB0F11F460FF1BC06F5F7C
:1056A0007F4F8F4F9F4F16C0882311F096E911C08E
:1056B000772321F09EE8872F762F05C0662371F0AF
:1056C00096E8862F70E060E02AF09A95660F771FC3
:1056D000881FDAF7880F9695879597F90895990F9F
:1056E0000008550FAA0BE0E8FEEF16161706E807AC
:1056F000F907C0F012161306E407F50798F0621BCD
:10570000730B840B950B39F40A2661F0232B242BA1
:10571000252B21F408950A2609F4A140A6958FEFC0
:10572000811D811D08950E94A62B0C94172C0E94A8
:10573000092C38F00E94102C20F0952311F00C94C5
:10574000002C0C94062C11240C944B2C0E94282C19
:1057500070F3959FC1F3950F50E0551F629FF001C4
:10576000729FBB27F00DB11D639FAA27F00DB11DDD
:10577000AA1F649F6627B00DA11D661F829F222766
:10578000B00DA11D621F739FB00DA11D621F839FED
:10579000A00D611D221F749F3327A00D611D231FC3
:1057A000849F600D211D822F762F6A2F11249F5711
:1057B00050409AF0F1F088234AF0EE0FFF1FBB1F14
:1057C000661F771F881F91505040A9F79E3F5105D3
:1057D00080F00C94002C0C944B2C5F3FE4F3983E2B
:1057E000D4F3869577956795B795F795E7959F5F7D
:1057F000C1F7FE2B880F911D9695879597F908950F
:1058000097F99F6780E870E060E008959FEF80EC73
:10581000089500240A941616170618060906089516
:1058200000240A9412161306140605060895092E7C
:105830000394000C11F4882352F0BB0F40F4BF2BEB
:1058400011F460FF04C06F5F7F4F8F4F9F4F08952B
:1058500057FD9058440F551F59F05F3F71F0479521
:10586000880F97FB991F61F09F3F79F08795089506
:10587000121613061406551FF2CF4695F1DF08C025
:10588000161617061806991FF1CF86957105610542
:1058900008940895E894BB2766277727CB0197F9EA
:1058A0000895F999FECF92BD81BDF89A992780B5E8
:1058B0000895262FF999FECF1FBA92BD81BD20BD54
:1058C0000FB6F894FA9AF99A0FBE019608952F929E
:1058D0003F924F925F926F927F928F929F92AF9280
:1058E000BF92CF92DF92EF92FF920F931F93CF93CD
:1058F000DF93CDB7DEB7CA1BDB0B0FB6F894DEBF64
:105900000FBECDBF09942A88398848885F846E8489
:105910007D848C849B84AA84B984C884DF80EE80D3
:10592000FD800C811B81AA81B981CE0FD11D0FB6DC
:10593000F894DEBF0FBECDBFED0108955058BB27D0
:10594000AA270E94B62C0C94172C0E94092C38F020
:105950000E94102C20F039F49F3F19F426F40C9487
:10596000062C0EF4E095E7FB0C94002CE92F0E9426
:10597000282C58F3BA17620773078407950720F09D
:1059800079F4A6F50C944A2C0EF4E0950B2EBA2F60
:10599000A02D0B01B90190010C01CA01A001112435
:1059A000FF27591B99F0593F50F4503E68F11A16E1
:1059B000F040A22F232F342F4427585FF3CF469572
:1059C00037952795A795F0405395C9F77EF41F1694
:1059D000BA0B620B730B840BBAF09150A1F0FF0F5E
:1059E000BB1F661F771F881FC2F70EC0BA0F621F4A
:1059F000731F841F48F4879577956795B795F7953A
:105A00009E3F08F0B0CF9395880F08F09927EE0FCE
:105A10009795879508950E94BA2DE3950C94E32DF0
:105A20000E94242D0C94172C0E94102C58F00E94D8
:105A3000092C40F029F45F3F29F00C94002C5111FF
:105A40000C944B2C0C94062C0E94282C68F3992360
:105A5000B1F3552391F3951B550BBB27AA2762176A
:105A60007307840738F09F5F5F4F220F331F441F77
:105A7000AA1FA9F335D00E2E3AF0E0E832D09150AB
:105A80005040E695001CCAF72BD0FE2F29D0660F98
:105A9000771F881FBB1F261737074807AB07B0E8DB
:105AA00009F0BB0B802DBF01FF2793585F4F3AF0E1
:105AB0009E3F510578F00C94002C0C944B2C5F3FCA
:105AC000E4F3983ED4F3869577956795B795F79567
:105AD0009F5FC9F7880F911D9695879597F908954F
