:100000000C94D6000C94FE000C94FE000C94FE00A0
:100010000C94FE000C9496160C94FE000C94FE00BA
:100020000C94FE000C9411150C94FE000C94FE0030
:100030000C94FE000C94FE000C94FE000C94FE0048
:100040000C94C7140C94FE000C9495140C946F142B
:100050000C94FE000C94FE000C94FE000C94FE0028
:100060000C9477150C94FE0005A84CCDB2D44EB973
:100070003836A9020C50B9918688083CA6AAAA2A4B
:10008000BE000000803F07634236B79BD8A71A39ED
:10009000685618AEBAAB558C1D3CB7CC5763BD6DD6
:1000A000EDFD753EF6177231BF000000803F08007D
:1000B0000000BE922449123EABAAAA2ABECDCCCCE7
:1000C0004C3E00000080BEABAAAAAA3E0000000081
:1000D000BF000000803F0000000000084178D3BB53
:1000E0004387D1133D190E3CC3BD4282AD2B3E6800
:1000F000EC8276BED98FE1A93E4C80EFFFBE01C4F1
:10010000FF7F3F00000000000000000024002700E7
:100110002A0000000000250028002B00040404042D
:1001200004040404020202020202030303030303A1
:10013000010204081020408001020408102001027E
:10014000040810200000000800020100000304075A
:1001500000000000000000004D61722020362032B7
:100160003032352031313A34373A343620417264F6
:10017000207665722E31303831352E005A756D6912
:10018000206D696E6920766572200028324B647D8F
:1001900096AFC8E10A00000A02000A0A00000A003D
:1001A00000000A00010404000A00411711241FBEC8
:1001B000CFEFD8E0DEBFCDBF25E0ACECB1E001C0B1
:1001C0001D92AE3DB207E1F711E0A0E0B1E0E4EF2F
:1001D000F4E602C005900D92AC3CB107D9F710E0EF
:1001E000C6EDD0E004C02197FE010E945C30C53D01
:1001F000D107C9F70E9488170C9478320C9400003C
:10020000E0910B03F0910C03309729F01092060354
:100210001092050309940895CF93DF93AC01E09108
:100220000903F0910A033097F1F09091080380914F
:1002300007039817C0F090E0292F30E02617370702
:1002400054F4D901A851BE4F240F351FE90128816C
:100250002C939F5FF1CF1092080360930703CB01AB
:10026000DF91CF910994DF91CF910895AF92BF9222
:10027000CF92DF92EF92FF920F931F93CF93DF9372
:100280006C017B018B01040F151FEB015E01AE18A1
:10029000BF08C017D10759F06991D601ED91FC91C3
:1002A0000190F081E02DC6010995892B79F7C501F0
:1002B000DF91CF911F910F91FF90EF90DF90CF9042
:1002C000BF90AF900895FC01538D448D252F30E0F1
:1002D000842F90E0821B930B541710F0CF96089553
:1002E00001970895FC01918D828D981761F0A28D80
:1002F000AE0FBF2FB11D5D968C91928D9F5F9F7346
:10030000928F90E008958FEF9FEF0895FC01918DFB
:10031000828D981731F0828DE80FF11D858D90E068
:1003200008958FEF9FEF0895FC01918D228D892F05
:1003300090E0805C9F4F821B91098F7399270895ED
:1003400089E094E00E94940121E0892B09F420E0E7
:10035000822F089580E090E0892B29F00E94A0016F
:1003600081110C9400000895FC01A48DA80FB92FF1
:10037000B11DA35ABF4F2C91848D90E001968F73CD
:100380009927848FA689B7892C93A089B1898C91EC
:10039000837080648C93938D848D981306C002883B
:1003A000F389E02D80818F7D80830895EF92FF9205
:1003B0000F931F93CF93DF93EC0181E0888F9B8D88
:1003C0008C8D98131AC0E889F989808185FF15C042
:1003D0009FB7F894EE89FF896083E889F989808165
:1003E0008370806480839FBF81E090E0DF91CF9134
:1003F0001F910F91FF90EF900895F62E0B8D10E056
:100400000F5F1F4F0F731127E02E8C8D8E110CC0C4
:100410000FB607FCFACFE889F989808185FFF5CF0F
:10042000CE010E94B401F1CFEB8DEC0FFD2FF11D39
:10043000E35AFF4FF0829FB7F8940B8FEA89FB894C
:1004400080818062CFCF0F931F93CF93DF938C0176
:10045000D0E0C0E0F801EC0FFD1F6491662341F08D
:1004600089E094E00E94D601892B11F02196F2CF09
:10047000CE01DF91CF911F910F910895CF93DF931C
:10048000EC01888D8823B9F0AA89BB89E889F989AC
:100490008C9185FD03C0808186FD0DC00FB607FCE1
:1004A000F7CF8C9185FFF2CF808185FFEDCFCE0114
:1004B0000E94B401E9CFDF91CF91089590E0FC0153
:1004C000EC5BFE4F2491FC01E05DFE4F3491FC019A
:1004D000E45EFE4FE491EE23C9F0222339F023308D
:1004E00001F1A8F4213019F1223029F1F0E0EE0FEA
:1004F000FF1FEE5EFE4FA591B4918FB7F894EC917B
:10050000611126C030953E233C938FBF089527305C
:10051000A9F02830C9F0243049F7809180008F7D00
:1005200003C0809180008F7780938000DFCF84B5F7
:100530008F7784BDDBCF84B58F7DFBCF8091B000FA
:100540008F778093B000D2CF8091B0008F7DF9CFAC
:100550003E2BDACFCF93DF9390E0FC01E05DFE4FBE
:100560002491845E9E4FFC0184918823D1F090E019
:10057000880F991FFC01E85FFE4FA591B491FC0123
:10058000EE5EFE4FC591D491623071F49FB7F8943E
:100590003C91822F809583238C93E8812E2B288396
:1005A0009FBFDF91CF9108958FB7F894EC912E2BD8
:1005B0002C938FBFF6CF1F93CF93DF93182FEB01B0
:1005C00061E00E94AA02209739F460E0812FDF9158
:1005D000CF911F910C945E02CF3FD10511F461E0E1
:1005E000F5CFE12FF0E0EC5BFE4FE491E33031F129
:1005F00040F4E130B1F0E230E1F0C038D1057CF7F1
:10060000E4CFE73029F1E83059F1E430B1F78091D7
:100610008000806280938000D0938B00C0938A001A
:1006200004C084B5806884BDC7BDDF91CF911F91A0
:10063000089584B5806284BDC8BDF7CF80918000E5
:10064000806880938000D0938900C0938800EDCFAC
:100650008091B00080688093B000C093B300E5CF74
:100660008091B00080628093B000C093B400DDCF71
:100670008E50806480937C0080917A0080648093A7
:100680007A0080917A0086FDFCCF8091780090916D
:1006900079000895CF93DF9361E08BE00E945E02C2
:1006A0008BE891E00197F1F78EE00E943803CFEFDD
:1006B000D3E0998388838FE00E9438039B838A83E9
:1006C00080E10E9438039D838C8384E10E9438037B
:1006D0009F838E8385E10E9438039987888760E035
:1006E0008BE0DF91CF910C945E023FB7F89480913C
:1006F000FD029091FE02A091FF02B091000326B589
:10070000A89B05C02F3F19F00196A11DB11D3FBF49
:10071000BA2FA92F982F8827BC01CD01620F711D18
:10072000811D911D42E0660F771F881F991F4A9512
:10073000D1F708958F929F92AF92BF92CF92DF929E
:10074000EF92FF924B015C010E9475036B017C01EB
:100750000E9475036C197D098E099F09683E7340DC
:1007600081059105A8F321E0821A9108A108B1083A
:1007700088EEC80E83E0D81EE11CF11C81149104A0
:10078000A104B10429F7FF90EF90DF90CF90BF90C4
:10079000AF909F908F9008952FB7F8946091F902D1
:1007A0007091FA028091FB029091FC022FBF089594
:1007B000FC0180E090E0A0E8BFE3868F978FA0A3C4
:1007C000B1A382A393A3A4A3B5A386A397A3A0A731
:1007D000B1A780E090E0A0E2B1E482A793A7A4A72C
:1007E000B5A7148E81E0858F089520916E02260FA3
:1007F0003327331F21343105ECF42091B202FC0180
:1008000090E080E0243069F082E00895A0916E02CB
:100810002191AC01425D5D4FA40FB52FB11D2C930A
:100820000196861798F380916E02680F60936E02AE
:1008300080E0089581E008951092B20281E08093F3
:10084000B4021092B30261E082E10E945E0261E0B4
:1008500083E10E945E02E9EBF0E080818E7F80837D
:1008600080818D7F808388E48093B80085E48093C5
:10087000BC0008950895E091080380910703E817EC
:1008800030F4F0E0E851FE4F808190E008958FEF62
:100890009FEF089590910803809107032FEF3FEF9A
:1008A000981748F4E92FF0E0E851FE4F208130E03E
:1008B0009F5F90930803C901089580910703909169
:1008C0000803891B990B0895CF93DF93CB01EA01AD
:1008D000642F0E94F503CE01DF91CF91089584E249
:1008E00080931A0382E580931B038091A703809372
:1008F0001C0320910E0120931D038091E00380933F
:100900001E038091000180931F0380910504909144
:10091000060497FD03969595879595958795809301
:100920002003809107049091080497FD0396959504
:10093000879595958795809321032D3FA1F482E0BB
:100940008093220388E1809323038AE18093240328
:100950008FEF80930E014BE050E06AE173E086EA8E
:1009600094E00C946404293FB9F480914B03909176
:100970004C039093210380914B0390914C038093FF
:1009800022038091490390914A039093230380911D
:10099000490390914A03DACF8091030490910404B3
:1009A00097FD039695958795959587958093220356
:1009B000809101049091020497FD03969595879587
:1009C00095958795809323038091FF039091000470
:1009D00097FD039695958795959587958093240324
:1009E000BACFCF93DF931F92CDB7DEB7698361E0B3
:1009F000CE0101960E94F50381E090E00F90DF9117
:100A0000CF91089590E080E008951092BA0310927B
:100A1000B90310925B0310925A0310927403109260
:100A20007503109276031092770310927803109258
:100A3000790310927A0310927B0310926403109250
:100A40006503109266031092670310929E03109242
:100A50009F031092A0031092A1031092AD03109275
:100A6000AE031092AF031092B0031092680310927D
:100A7000690310926A0310926B0310929A0310920A
:100A80009B0310929C0310929D031092600310929E
:100A90006103109262031092630310925C03109240
:100AA0005D0310925E0310925F0310927003109228
:100AB0007103109272031092730310926C031092E0
:100AC0006D0310926E0310926F03109256031092F2
:100AD000570310925803109259031092B2031092C8
:100AE000B1031092B4031092B3031092E503109275
:100AF000E4031092E2031092E10308954F925F9293
:100B00006F927F928F929F92AF92BF92CF92DF921D
:100B1000EF92FF920F931F93CF93DF934B015C01F2
:100B20006A01E90127013801109299038AE0809354
:100B3000940381E0809393031416150614F582E064
:100B40008093970320E030E040E05FEBC5010E9416
:100B5000452B87FF27C0B601DD0C880B990B0E943F
:100B60004C2B6B017C01AC019B01C301B2010E94C3
:100B7000AB2BA70196010E94B72C0E949A2D6B0106
:100B800011C0452B09F445C080939703D194C194BB
:100B9000D10820E030E040E05FE3C5010E940F2E65
:100BA0001816CCF2C09295031C161D06C4F581E000
:100BB0008093980320E030E040E05FE3C501B4019A
:100BC0000E940F2E1816ECF5BE01DD0F880B990B55
:100BD0000E944C2B4B015C01A30192010E94AB2BA4
:100BE000A50194010E94B72C0E94A12D6093960349
:100BF000DF91CF911F910F91FF90EF90DF90CF90F9
:100C0000BF90AF909F908F907F906F905F904F902C
:100C1000089583E08093970310929503C5CF2097A2
:100C200091F082E080939803D195C195D10920E09D
:100C300030E040E05FEBC501B4010E94452B87FD29
:100C4000C3CF6C2FD3CF83E0809398031092960389
:100C5000CFCF8230910549F08330910549F0813042
:100C6000910511F48CE390E008958AE590E00895F1
:100C700088E790E00895E091DE01E150E730D0F49C
:100C8000F0E0EA5BF94F8AE00C945C304D065406C4
:100C900067066C06730678067D068093EA03109259
:100CA000EC031092EB0306C08093EC031092EB036D
:100CB0001092EA038091A903811108C01092EA03FF
:100CC0001092EB031092EC031092D90508958093D3
:100CD000EB031092EC03ECCF8093EB038093EA03D9
:100CE0001092EC03E7CF8093EC038093EB03E0CF0B
:100CF0008093EC038093EA03D4CF8093EC0380933A
:100D0000EB038093EA03D6CF2F923F924F925F92EC
:100D10006F927F928F929F92AF92BF92CF92DF920B
:100D2000EF92FF920F931F93CF93DF938C01EBE829
:100D3000F1E0C491BC01990F880B990B0E944C2BD8
:100D40004B015C01C01711060CF080C0C1E0D0E07F
:100D5000BE0165577E4FFB018491801711060CF48C
:100D600065C0CE0101979C0125573E4FF901449182
:100D7000FB012490F9013490880F991F880F991F67
:100D8000FC01EB5DFC4F4080518062807380B801B4
:100D9000641B7109072E000C880B990B0E944C2BC9
:100DA0006B017C01822D8319990BBC01072E000C6D
:100DB000880B990B0E944C2B9B01AC01C701B6011B
:100DC0000E94282D6B017C01CC0FDD1FCC0FDD1F95
:100DD000CB5DDC4FA3019201688179818A819B817F
:100DE0000E94B62C9B01AC01C701B6010E94AB2B3F
:100DF000A30192010E94B72CA50194010E94AB2B84
:100E00000E949A2DCB01DF91CF911F910F91FF90FE
:100E1000EF90DF90CF90BF90AF909F908F907F909A
:100E20006F905F904F903F902F9008952196C9301A
:100E3000D10509F08DCF20914503309146034091B3
:100E4000470350914803C501B401D8CF2091250331
:100E5000309126034091270350912803F4CFCF937C
:100E6000DF93C42F813049F0D9E08AE0613041F04E
:100E7000623089F070E060E010C0D6E085E0F6CF27
:100E800070E060E00E94DB026C2F70E08D2FDF913C
:100E9000CF910C94DB026C2F70E00E94DB0270E0BB
:100EA00060E0F4CFCF93DF93809193038823B9F16F
:100EB000C091E601D091E701D7FD5DC08091940318
:100EC000082E000C990BC817D9070CF054C080915C
:100ED0009903823009F044C04091950361E081E0BC
:100EE0000E942F074091960361E082E00E942F0745
:100EF00060919703662329F04091950381E00E9459
:100F00002F07609198034091960361113BC0219691
:100F1000CF31D105DCF5D093E701C093E601909184
:100F2000E9038091E5018917B0F52C9A9091E703C8
:100F30008091E501891788F5439A9091E8038091A3
:100F4000E501891760F52D9A8091E5018F5F809307
:100F5000E5018B3010F01092E501DF91CF910895FB
:100F6000813031F64091950362E00E942F07409155
:100F7000960362E0BACF40E063E081E00E942F0771
:100F800040E063E082E00E942F07C1CF1092E701AA
:100F90001092E601C4CF2C98C9CF4398CECF2D989C
:100FA000D3CFCF93DF93EB014091D601242F30E0D4
:100FB0002817390741F04093D7018093D601309329
:100FC000D5012093D4012091D4013091D501211570
:100FD000310579F48730910579F440E062E081E0F1
:100FE0000E942F0740E061E082E0DF91CF910C94F6
:100FF0002F072730310521F40097C9F4488106C036
:101000002430310549F4009779F44E8162E081E0A3
:101010000E942F074881E7CF26303105A1F3223007
:10102000310551F4009751F387309105B1F28430C6
:10103000910541F54C81EACF2130310549F4009703
:1010400099F7488162E081E00E942F074E81CBCF63
:101050002330310561F7F3CF8230910579F2833087
:10106000910539F4488162E081E00E942F074A81AE
:10107000BACF019761F4488162E081E00E942F07B6
:101080004C81B1CF8630910539F74A81BFCFDF91CE
:10109000CF9108950F931F93CF93DF93EB0120918E
:1010A000D0013091D1012817390761F03093D30175
:1010B0002093D2019093D1018093D0013093CF013E
:1010C0002093CE01009709F052C040E063E081E038
:1010D0000E942F0740E063E082E00E942F0700910A
:1010E000CE011091CF0140E00130110509F464C038
:1010F0000230110581F440E062E081E00E942F0798
:101100004A8161E082E00E942F070D3F8FEF1807B0
:1011100041F54C8119C00330110539F440E062E01B
:1011200081E00E942F074C81ECCF0430110539F487
:1011300040E062E081E00E942F074E81E2CF0F3F46
:10114000100709F04EC0488162E081E00E942F073D
:1011500040E061E082E0DF91CF911F910F910C940C
:101160002F070C3F1F4F09F045C04E81EDCF8E3F3A
:101170002FEF920739F4488162E081E00E942F0747
:101180004A81E7CF8D3F2FEF920739F4488162E023
:1011900081E00E942F074C81DCCF8C3F2FEF92071C
:1011A00039F4488162E081E00E942F074E81D1CF5F
:1011B0008230910539F44A8162E081E00E942F0774
:1011C0004881C7CF8330910511F44C81F5CF84302D
:1011D000910511F44E81F0CF8130910549F4488199
:1011E000EBCF0E3F8FEF180709F08FCF4A81ACCFBE
:1011F0000196A9F3DF91CF911F910F91089540E0DF
:1012000063E081E00E942F0740E063E082E00C94FD
:101210002F071092DA031092D9038FEF80930E01FB
:101220000E9405050E94FF0810928D031092A703EB
:101230001092BD03109293031092DF031092820369
:1012400008958F929F92AF92BF92CF92DF92EF92CA
:10125000FF920F931F938C014B010E94CC03F80166
:10126000C080D180E280F3809B01AC012C193D0944
:101270004E095F0969017A01B12CA12C8C149D04DF
:10128000AE04BF0480F4608371838283938381E022
:101290001F910F91FF90EF90DF90CF90BF90AF9094
:1012A0009F908F90089580E0F3CFFC010190002083
:1012B000E9F73197AF01481B590BBC0189E094E075
:1012C0000C9436018F929F92AF92BF920F931F930F
:1012D000CF93DF93CDB7DEB7A1970FB6F894DEBFFB
:1012E0000FBECDBF19A2423008F44AE08E010F5D57
:1012F0001F4F842E912CB12CA12CA50194010E948A
:101300001B30E62FB901CA01EA30F4F4E05DD801E0
:10131000EE938D01232B242B252B79F790E080E091
:10132000109719F0CD010E945509A1960FB6F894B7
:10133000DEBF0FBECDBFDF91CF911F910F91BF9048
:10134000AF909F908F900895E95CE1CFCF93DF93AA
:101350000E945509EC018AE891E00E9455098C0F22
:101360009D1FDF91CF9108954F925F926F927F9270
:101370008F929F92AF92BF92CF92DF92EF92FF92A5
:101380000F931F93CF936B017C01742EAC019B01D3
:101390000E94B22E882399F08DE891E0CF911F91A1
:1013A0000F91FF90EF90DF90CF90BF90AF909F9004
:1013B0008F907F906F905F904F900C9455094601ED
:1013C0005701E894B7F82FEF3FEF4FE75FE7C5010C
:1013D000B4010E94B22E81110DC02FEF3FEF4FE7F5
:1013E0005FE7C501B4010E94452B18161CF481E982
:1013F00091E0D4CF2FEF3FEF4FE75FE4C701B60195
:101400000E940F2E18161CF485E991E0C7CF2FEF2C
:101410003FEF4FE75FECC701B6010E94452B87FD08
:10142000F3CF20E030E0A901C701B6010E94452BAF
:1014300010E000E087FF0AC06DE289E094E00E94BE
:10144000D6018C01F7FAF094F7F8F094C0E060E070
:1014500070E080E09FE37C1641F020E030E040E265
:1014600051E40E94282DCF5FF6CFA70196010E947C
:10147000B72C2B013C010E94A12D4B015C014AE0DD
:101480000E9462097C01E00EF11ECC23C1F1C5016E
:10149000B4010E944A2B9B01AC01C301B2010E941E
:1014A000B62C4B015C016EE289E094E00E94D6010B
:1014B000E80EF91EC15018F120E030E040E251E49E
:1014C000C501B4010E94AB2B2B013C010E94A12D50
:1014D0004B01B12CA12C4AE0C501B4010E94620964
:1014E000E80EF91EC501B4010E944A2B9B01AC0114
:1014F000C301B2010E94B62C4B015C01DBCFC701D6
:10150000CF911F910F91FF90EF90DF90CF90BF9000
:10151000AF909F908F907F906F905F904F900895C5
:101520004F925F926F927F928F929F92AF92BF92F3
:10153000CF92DF92EF92FF924B015C0169017A0139
:1015400060915A0370915B03072E000C880B990B76
:101550000E944C2B2B013C012DEC3CEC4CEC5DE350
:101560000E94B72CA50194010E94452B18160CF47B
:1015700098C020E030E0A901C701B6010E940F2EFB
:1015800018160CF08AC0C701B6010E949A2D60930C
:101590009403109297031092980381E08093930331
:1015A00082E0809399038AEF80939503809396035A
:1015B0008091E4039091E5032091DA013091DB0101
:1015C0002817390709F0B4C08091E1039091E20334
:1015D0002091D8013091D9012817390709F0A8C006
:1015E0008091D9039091DA0301969093DA03809366
:1015F000D9032091E4033091E5033093DB0120937C
:10160000DA012091E1033091E2033093D901209374
:10161000D8018B3F9105A4F120E030E0A901C7017A
:10162000B6010E940F2E18160CF085C0C701B60136
:101630000E949A2D6093940310929703109298033E
:1016400083E08093990310929503109296030E9471
:10165000FF081092DA031092D9038FEF80930E01E6
:10166000109293030E9405050E94FF0868EE73E044
:1016700080E090E00E949A031092A7031092BD03AD
:10168000FF90EF90DF90CF90BF90AF909F908F90A2
:101690007F906F905F904F900895C701B60190586A
:1016A00074CF2DEC3CEC4CEC5DE3C301B2010E9425
:1016B000B62CA50194010E940F2E20E030E0A90174
:1016C00087FD18C0C701B6010E940F2E181674F4CA
:1016D000C701B6010E949A2D60939403109297035C
:1016E0001092980381E0809393035BCFC701B6010A
:1016F0009058F0CFC701B6010E940F2E1816A4F41F
:10170000C701B6010E949A2D60939403109297032B
:101710001092980383E0809399031092950310929E
:1017200096030E94FF0844CFC701B6019058EACF44
:1017300090E080E05ACFC701B601905879CF4F9220
:101740005F926F927F928F929F92AF92BF92CF9251
:10175000DF92EF92FF920F931F93CF93DF9300D00E
:1017600000D0CDB7DEB71091070380910803C12EDA
:10177000C81AD12CB6018091E3019091E4010E9436
:101780009B319A8389839093E4018093E301A601BE
:1017900070E060E00E946132F12C8091080318171C
:1017A00059F086EA94E00E944A04E981FA81EF0D3B
:1017B000F11D8083F394F1CF8091BD0381114FC05F
:1017C000E981FA8116818FEF810F8A3608F00CC407
:1017D00083EE810F823068F080EE810F843048F014
:1017E00088E9810F833028F081E08093A7038093FC
:1017F000BD0310930E01109300010E94CC0360936F
:101800008E0370938F0380939003909391031092B3
:10181000DA031092D9030E9405050E94FF080E9476
:10182000CC036093B2047093B3048093B404909398
:10183000B504113009F085C0E981FA818085FAE0AC
:101840008F9FC00111249093BA038093B903109223
:101850004A031092490310924C0310924B03E091FB
:10186000E301F091E40127812983223009F0D4C4F7
:10187000868180930E0180930001863609F0AAC408
:1018800081E08093CC031092CB031092CA03109294
:10189000DF031092C00320852093C103DF0188E09D
:1018A00090E019963C9119972313A7C421E0209347
:1018B000C003E80FF91F62816093C2034381409324
:1018C000C30324812093C40385818093C50370E002
:1018D00030E0DB01A20FB31FB595A795E0EF9E2F77
:1018E0009A1B9093C60350E090E0DA01A80FB91F4D
:1018F000B595A795EA1BE093C703261B370B841BFE
:10190000950B289FA001299F500D389F500D112441
:101910005093C9034093C8030F900F900F900F90FE
:10192000DF91CF911F910F91FF90EF90DF90CF90BB
:10193000BF90AF909F908F907F906F905F904F90EF
:101940000895143061F4E981FA81208546EF42035D
:10195000900111243093BA032093B90378CF133048
:1019600009F058C01091E1018091E201082E000CAD
:10197000990B811B910917FD9395BC01990F880B59
:10198000990B0E944C2B20E030E044EB52E40E9483
:10199000282D4B015C01E981FA816085F5E06F9F9C
:1019A000B0011124072E000C880B990B0E944C2BC0
:1019B0006B017C01612F110F770B880B990B0E9433
:1019C0004C2B2B013C0120E030E044EB52E4C501FC
:1019D000B4010E94AB2B9B01AC01C301B2010E9478
:1019E000B62C2B013C01A7019601C501B4010E9450
:1019F000AB2B9B01AC01C301B2010E94B72CA70124
:101A000096010E94B72C0E949A2D70935B036093FD
:101A10005A031DCF123009F05EC0E981FA811085AA
:101A2000F091DF01F9838091E001082E000C990B01
:101A30008F1B9109F7FD9395BC01990F880B990BAA
:101A40000E944C2B20E030E044EB52E40E94282D11
:101A50006B017C012BEF2103B0011124072E000C38
:101A6000880B990B0E944C2B4B015C013981632F31
:101A7000330F770B880B990B0E944C2B2B013C01E9
:101A800020E030E044EB52E4C701B6010E94AB2BEA
:101A90009B01AC01C301B2010E94B62C2B013C0199
:101AA00045E0149FB0011124072E000C880B990B00
:101AB0000E944C2BA70196010E94AB2B9B01AC010D
:101AC000C301B2010E94B72C9B01AC01C501B40156
:101AD0000E94B62C98CF1A3109F076C0E981FA81BC
:101AE00020852093BB03818580938003928590930A
:101AF000BC03482F50E0911120C0FAE08F9FC00135
:101B000011249093BA038093B9032130E9F4209112
:101B1000B9033091BA0337FF03C0319521953109DC
:101B20004BE0429FC001439F900D11248457954F75
:101B3000092E000CAA0BBB0B17C036EF3403C001F3
:101B4000359F900D1124DDCF223041F58091B903EE
:101B50009091BA039C0128533F4F2139314068F4DA
:101B60008CEA9DE0A0E0B0E0809308019093090129
:101B7000A0930A01B0930B0172CE97FF03C0919519
:101B800081959109885C910947E0489F9001499FA0
:101B9000300D1124C9018455924FCACF233009F06A
:101BA0005ECE8091B9039091BA039C0128533F4FB8
:101BB00021393140A8F297FF03C091958195910991
:101BC000885C910945E0E1CF1B3109F01CC1E98136
:101BD000FA8100850093BB03618412851093BC03D6
:101BE000712CB301660F771F072E000C880B990B21
:101BF0000E944C2B6B017C01111174C05090DF01CD
:101C00006091E001062E000C770B6519710957FCF5
:101C10007395072E000C880B990B0E944C2B20E02B
:101C200030E044EB52E40E94282D4B015C01662712
:101C3000772766197709660F771F072E000C880B28
:101C4000990B0E944C2B69837A838B839C83652D2F
:101C5000550C770B880B990B0E944C2B2B013C01E8
:101C600020E030E044EB52E4C501B4010E94AB2B0C
:101C70009B01AC01C301B2010E94B62C2B013C01B7
:101C8000A7019601C501B4010E94AB2B9B01AC01D9
:101C9000C301B2010E94B72C9B01AC0169817A811A
:101CA0008B819C810E94B62C0E949A2D70935B03BD
:101CB00060935A03013009F06BC080915A039091F0
:101CC0005B038B3591050CF050C084EC99E0A0E0EB
:101CD000B0E08093040190930501A0930601B093B6
:101CE0000701BDCD1091E1018091E201082E000CA9
:101CF000990B811B910917FD9395BC01990F880BD6
:101D0000990B0E944C2B20E030E044EB52E40E94FF
:101D1000282D4B015C01612F110F770B880B990B5C
:101D20000E944C2B2B013C0120E030E044EB52E4BC
:101D3000C501B4010E94AB2B9B01AC01C301B201F0
:101D40000E94B62C2B013C01A7019601C501B401EC
:101D50000E94AB2B9B01AC01C301B2010E94B72CC6
:101D6000A70196010E94B72C9FCF69E070E00E9406
:101D70000730665F7F4F24E6269FC001279F900DA6
:101D800011248C509E4F092E000CAA0BBB0BA1CF27
:101D90000230D9F480915A0390915B038B35910501
:101DA0007CF069E070E00E9407306A5071092CE312
:101DB000269FC001279F900D11248856974FE3CF8F
:101DC00088E998E0A0E0B0E084CF033009F047CD87
:101DD00080915A0390915B038B3591057CF069E00B
:101DE00070E00E9407306A50710922E3269FC0010B
:101DF000279F900D11248C5C974FC5CF84E398E00A
:101E0000A0E0B0E066CF1D3149F4E981FA81808518
:101E10008093BB0381858093BC0321CD1C3149F4A1
:101E2000E981FA8180858093BB038185809380035B
:101E300016CD143249F4E981FA8180858093BB0381
:101E40008185809381030BCD1532D1F4E981FA812C
:101E500080858093BB038185F4E08F9FC0011124AE
:101E60009093CF038093CE03E981FA818285F4E0D9
:101E70008F9FC00111249093D1038093D003EFCCA6
:101E8000163229F5E981FA8180858093BB0381852B
:101E9000F4E08F9FC00111249093D3038093D20369
:101EA000E981FA818285F4E08F9FC001112490932B
:101EB000D5038093D403E981FA818385F4E08F9F71
:101EC000C00111249093D7038093D603C8CC1E3150
:101ED00021F088E9810F833070F58091870390911C
:101EE00088039093D3038093D203809189039091C8
:101EF0008A039093D5038093D40380918B039091B0
:101F00008C039093D7038093D603809183039091A1
:101F100084039093CF038093CE03809185039091A7
:101F200086039093D1038093D003E981FA81808561
:101F30008093BB0394CC1F3111F0123261F4E9811C
:101F4000FA8180858093DE0181858093AC03828550
:101F50008093A90384CC80EE810F823060F4E98104
:101F6000FA8180858093AA0381858093A803828566
:101F70008093AB0374CC133289F41092D90584E6B4
:101F800090E09093F2038093F103E981FA818085D8
:101F90008093AA0381858093DE01E9CF1A3061F432
:101FA000E981FA8180858093EA0381858093EB0340
:101FB00082858093EC0353CC153031F4E981FA81AA
:101FC0008085809392034BCC193209F048CCE9818B
:101FD000FA8180858093AA0381858093A8038285F6
:101FE0008093AB038385EDCF183C19F41092D9058B
:101FF000D7CF193C79F4E981FA8180858093D9059E
:10200000818592859827892798279093F20380935A
:10201000F10325CC1639C1F5E981FA818085F4E018
:102020008F9FC00111249093840380938303E981DF
:10203000FA818185F4E08F9FC0011124909386037B
:1020400080938503E981FA818285F4E08F9FC00146
:1020500011249093880380938703E981FA81838513
:10206000F4E08F9FC001112490938A038093890329
:10207000E981FA818485F4E08F9FC0011124909357
:102080008C0380938B03EBCB173979F4E981FA81C8
:1020900080858093DF0181858093E1018285809333
:1020A000E00183858093E201DACB1E3F29F50E948F
:1020B000FF088FEF80930E018093000110928D0333
:1020C0001092BD031092A7031092DA031092D90365
:1020D0001092D9051092EA031092EB031092EC03D0
:1020E0001092CC031092CB031092CA031092DF031C
:1020F00081E080930F01B3CB1D3F19F410930E01C3
:10210000AECB173F59F481E0809355038093A7032A
:1021100087EF80930E0180930001A1CB193F71F3EB
:10212000183F49F410924C0310924B0310924A034B
:102130001092490394CB1C3FD9F21B3FB9F4109283
:102140000F01109200041092FF03109202041092EB
:1021500001041092040410920304109206041092D9
:102160000504109208041092070479CB1A3F79F401
:1021700068EE73E080E090E00E949A0383B7817F6D
:10218000846083BF83B7816083BF889568CB1E3E20
:1021900079F489E991E00E94A60988E198E00FB6F8
:1021A000F894A895809360000FBE90936000FFCFD5
:1021B0000E94FF088FEF80930E0180930001109220
:1021C0008D031092BD031092A7031092DA031092B0
:1021D000D90345CB833D31F41092CC0381E0809349
:1021E000CB0353CB843D09F054CB1092CC03109217
:1021F000CB0381E08093CA034ACB059615968B32B8
:10220000910509F04ECB1092C6031092C7031092AD
:10221000C9031092C80380CB39813F3F09F07CCBC2
:10222000868180930E0180930001853611F580919F
:102230008703909188039093D3038093D203809176
:10224000890390918A039093D5038093D40380915E
:102250008B0390918C039093D7038093D60381E0F6
:102260008093DF031092CC031092CB031092CA0329
:1022700053CB8E3F21F50E94FF08498140930E0108
:102280004093000110928D03109255031092BD03EC
:102290001092A7031092DA031092D9031092D90575
:1022A0001092EA031092EB031092EC031092CC030D
:1022B0001092CB031092CA031092DF032DCB8F3FF5
:1022C000A9F70E94FF081092CC031092CB03109242
:1022D000CA031092DF0310928D031092BD03809108
:1022E00055038111109255031092A7031092DA033F
:1022F0001092D90311CB0F931F93CF93DF93EC016F
:1023000088819981009759F02A813B8126173707E8
:1023100030F081E0DF91CF911F910F9108958B01F3
:102320006F5F7F4F0E949B31009759F0998388839C
:102330001B830A832C813D81232B59F7FC011082DA
:10234000E8CF80E0E7CFFC0180819181009711F018
:102350000C9412310895EF92FF920F931F93CF9335
:10236000DF93EC017B01198218821B821A821D8285
:102370001C82FB0101900020E9F731978F01061BB9
:10238000170BB8010E947B1128813981811113C07C
:102390002115310519F0C9010E94123119821882E4
:1023A0001D821C821B821A82DF91CF911F910F9197
:1023B000FF90EF9008951D830C83B701C901DF9151
:1023C000CF911F910F91FF90EF900C9471322F924B
:1023D0003F924F925F926F927F928F929F92AF92B5
:1023E000BF92CF92DF92EF92FF920F931F93CF9302
:1023F000DF93CDB7DEB765970FB6F894DEBF0FBE9B
:10240000CDBFDC015D96EC91EE2309F498C1180173
:102410003D8B2C8B488B598B6A8B7B8B2C010E94BC
:10242000CC036F83788789879A87F20180819181B5
:10243000A281B3812F81388549855A85281B390BA4
:102440004A0B5B0BCA01B9010E944A2B6B877C8740
:102450008D879E87288939894A895B89D201D696DA
:102460006D917D918D919C91D9970E94B62C4B01D5
:102470005C01AC019B016B857C858D859E850E94EE
:10248000AB2BF20124893589468957890E94B72CE4
:102490003B016C01CB01D601F201848B958BA68B9D
:1024A000B78BF48DFF87FF23A9F12DEC3CEC4CE8B2
:1024B0005FE3D2019E966D917D918D919C91D19714
:1024C0000E94AB2B7B018C019B01AC01B301C601C7
:1024D0000E94452B87FD17C02DEC3CEC4CE85FE3D8
:1024E000F20162A973A984A995A90E94AB2B7B0173
:1024F0008C019B01AC01B301C6010E940F2E18167E
:1025000014F073018601C701D801F201848B958B09
:10251000A68BB78BD20154962D913D914D915C9134
:10252000579792966D917D918D919C9195970E9470
:10253000AB2B6B017C01F201268D378D40A151A19F
:10254000C501B4010E94AB2B9B01AC01C701B601D0
:102550000E94B72C6B017C01D20118962D913D9100
:102560004D915C911B97C501B4010E94B62C2B853F
:102570003C854D855E850E94282DF20126A137A15C
:1025800040A551A50E94AB2B9B01AC01C701B60130
:102590000E94B72CD2019A962D913D914D915C915C
:1025A0009D970E94282D3B016C01BF85BB2309F438
:1025B000BCC0F201E6A4F7A400A911A99701A801E3
:1025C0000E94452B87FD16C0D201D296EC90D2977F
:1025D000D396FC90D397D4960C91D497D5961C9112
:1025E0009701A801B301C6010E940F2E181614F01E
:1025F00073018601C701D801F20184839583A68304
:10260000B78380869186A286B3862F8138854985D7
:102610005A852083318342835383EC89FD898481E9
:102620009581892B09F463C065EC71E0808191810B
:102630000E946832892B09F05AC01A8219821C82C2
:102640001B821E821D82D1010D911C9111970115D3
:102650001105C1F01496ED90FC90B701CE010196E2
:102660000E947B1129813A81811162C021153105B7
:1026700019F0C9010E9412311A8219821E821D822C
:102680001C821B8242E0688979898A899B890E9421
:10269000B4098D819E81892BA1F06BEB71E089815A
:1026A0009A810E946832892B61F480EA91E00E944D
:1026B0005509F201648175818681978142E00E940B
:1026C000B40980EA91E00E945509D201D6966D9135
:1026D0007D918D919C91D99742E00E94B4098AE83E
:1026E00091E00E945509CE0101960E94A311F201CA
:1026F000648175818681978165960FB6F894DEBFF7
:102700000FBECDBFDF91CF911F910F91FF90EF9042
:10271000DF90CF90BF90AF909F908F907F906F9001
:102720005F904F903F902F900895CB01D60164CFDA
:10273000FE82ED82B801C9010E947132A3CF60E030
:1027400070E0CB01D9CFCF92DF92EF92FF920F933F
:102750001F93CF93DF9300D000D000D01F92CDB74E
:10276000DEB7CE0101967C0187E0F70111928A95D0
:10277000E9F767010AE010E0C8010E94692CF60140
:1027800081936F010F5F1F4F00311105A9F762EAB6
:1027900071E0C7010E946832892BC1F1E5E2F3E0E4
:1027A00089E493E040E050E060E87FE34193519397
:1027B000619371938E179F07C9F789EA91E00E9490
:1027C000A60905E213E0F80161917191819191915F
:1027D0008F0142E00E94B40987EB91E00E94550905
:1027E000F3E009341F0779F78CE891E027960FB6DC
:1027F000F894DEBF0FBECDBFDF91CF911F910F9137
:10280000FF90EF90DF90CF900C94A60985E2E82E20
:1028100083E0F82E0EE110E0C8010E94692CF70158
:1028200081937F010F5F1F4F02341105A9F7C5CFB8
:10283000CF93DF9385ED8093BC0080912A02909125
:102840002B02A0912C02B0912D020796A11DB11D63
:1028500023E0B695A795979587952A95D1F720916E
:10286000BC0024FD03C01092B20236C040912A027F
:1028700050912B0260912C0270912D02452B462B1A
:10288000472B69F30097A105B10541F02AE22A958B
:10289000F1F700C00197A109B109E1CF80912902A8
:1028A00091E0909328028823B9F0C091B800D091AC
:1028B000BA008091BC008A7B8093BC0060E082E11A
:1028C0000E945E0260E083E10E945E020E941C049E
:1028D000D093BA00C093B800DF91CF9108951F92B2
:1028E0000F920FB60F9211242F933F934F935F9344
:1028F0006F937F938F939F93AF93BF93EF93FF93C8
:1029000089E094E00E94B401FF91EF91BF91AF91F3
:102910009F918F917F916F915F914F913F912F91F7
:102920000F900FBE0F901F9018951F920F920FB629
:102930000F9211242F938F939F93EF93FF93E09126
:102940001904F0911A048081E0911F04F091200491
:1029500082FD1BC09081809122048F5F8F73209134
:102960002304821741F0E0912204F0E0E75FFB4F7F
:10297000958F80932204FF91EF919F918F912F91DA
:102980000F900FBE0F901F9018958081F4CF1F926B
:102990000F920FB60F9211242F933F938F939F9313
:1029A000AF93BF938091F9029091FA02A091FB023C
:1029B000B091FC023091F80223E0230F2D3758F537
:1029C0000196A11DB11D2093F8028093F902909306
:1029D000FA02A093FB02B093FC028091FD02909159
:1029E000FE02A091FF02B09100030196A11DB11D4E
:1029F0008093FD029093FE02A093FF02B093000328
:102A0000BF91AF919F918F913F912F910F900FBEEA
:102A10000F901F90189526E8230F0296A11DB11D57
:102A2000D2CF1F920F920FB60F9211242F933F9384
:102A30004F935F936F937F938F939F93AF93BF93C6
:102A4000EF93FF9380911303909114038093B2004E
:102A50008091160390911703A0911803B091190368
:102A60000196A11DB11D8093160390931703A093A7
:102A70001803B09319034091160350911703609106
:102A800018037091190380910F0390911003A09186
:102A90001103B0911203481759076A077B07B0F07A
:102AA00080911503811112C081E08093150310926B
:102AB0001603109217031092180310921903E09155
:102AC0000D03F0910E03099510921503FF91EF91FC
:102AD000BF91AF919F918F917F916F915F914F9136
:102AE0003F912F910F900FBE0F901F9018951F923E
:102AF0000F920FB60F9211242F933F934F935F9332
:102B00006F937F938F939F93AF93BF93EF93FF93B5
:102B10008091B900887F803609F44AC0F0F5883288
:102B200009F4A7C018F5803109F49BC0B8F48823D4
:102B300009F4F9C0883009F494C0FF91EF91BF9176
:102B4000AF919F918F917F916F915F914F913F9145
:102B50002F910F900FBE0F901F901895883109F498
:102B600088C0803251F78093B10214C0803409F4D8
:102B70009DC040F48033B9F38833F9F68093B102F5
:102B800085ECB0C0803509F485C0883509F496C05D
:102B9000883499F60E941814D0CF883909F48CC073
:102BA00038F5883729F050F4883611F0803729F647
:102BB00083E08093B2021092B00257C0883809F4C3
:102BC0007BC0803919F0803809F0B7CF8091B0020E
:102BD000803408F071C0E091B00281E08E0F8093E4
:102BE000B0028091BB00F0E0E059FD4F80833DC012
:102BF000803B39F0E0F4803A09F479C0883A09F072
:102C00009CCF84E08093B20210926F0210926E0209
:102C1000E0910303F0910403099580916E02811104
:102C20000FC081E080936E0210922E0209C0803C9A
:102C300009F4A6CF883C09F4A3CF883B09F07DCFE7
:102C4000E0916F0281E08E0F80936F02F0E0E25D11
:102C5000FD4F80818093BB0090916F0280916E0246
:102C600029C08091F7028093BB0085EC8093BC0063
:102C700064CF9091F6028091F502981758F5E09193
:102C8000F60281E08E0F8093F602F0E0EB54FD4FE8
:102C90008081E9CFE091F60281E08E0F8093F60209
:102CA0008091BB00F0E0EB54FD4F80839091F602E1
:102CB0008091F5029817C8F285E8D8CFE091F60226
:102CC00081E08E0F8093F6028091BB00F0E0EB5420
:102CD000FD4F80838091B40281115CCF81E08093AD
:102CE000B30284EA8093BC001092B20226CF85EC36
:102CF0008093BC001092B2028091B002803430F414
:102D0000E091B002F0E0E059FD4F10826091B00216
:102D100070E0E0910103F091020380E792E00995F1
:102D20001092B0020ACF1092B10234CF1F920F92CC
:102D30000FB60F9211242F933F934F935F936F938E
:102D40007F938F939F93AF93BF93EF93FF9399B12B
:102D5000292F30E0F901F595E795F595E7954E2F88
:102D6000417050E0FA01EE0FFF1F94FB442740F939
:102D70004E2B8091DD01841751F1E091DD0184E05B
:102D8000E89FF0011124EA5EFE4FE40FF11D8081FF
:102D9000E82F082E000CFF0BA091E403B091E5038F
:102DA000AE0FBF1FB093E503A093E403A0914B03C4
:102DB000B0914C03EA0FFB1FF0934C03E0934B03DD
:102DC0004093DD0118160CF04FC01092E60383E02B
:102DD000359527958A95E1F7622F617070E0660F4F
:102DE000771F991F9927991F892F862B9091DC01B6
:102DF000981749F1E091DC0194E0E99FF00111247A
:102E0000EA5EFE4FE80FF11D9081292F092E000C7C
:102E1000330B4091E1035091E203420F531F509353
:102E2000E2034093E1034091490350914A03240F88
:102E3000351F30934A03209349038093DC01191610
:102E4000D4F41092E303FF91EF91BF91AF919F9162
:102E50008F917F916F915F914F913F912F910F9043
:102E60000FBE0F901F901895882309F4B0CF81E012
:102E70008093E603ACCF992331F381E08093E303A1
:102E8000E2CFE9E0F4E01382128288EE93E0A0E062
:102E9000B0E084839583A683B7832AE631E031834B
:102EA000208325EC30E03587248724EC30E0378719
:102EB000268720EC30E0318B208B21EC30E0338B07
:102EC000228B22EC30E0358B248B26EC30E0378BE4
:102ED000268B118E128E138E148EE6EAF4E0138286
:102EE000128284839583A683B7838CE791E09183D4
:102EF00080838091D9058093D8050E94CC0360938C
:102F0000B2047093B3048093B4049093B50408950D
:102F1000CF93DF93CDB7DEB76C970FB6F894DEBFD3
:102F20000FBECDBF789484B5826084BD84B58160C6
:102F300084BD85B5826085BD85B5816085BD809184
:102F40006E00816080936E001092810080918100FC
:102F500082608093810080918100816080938100F4
:102F6000809180008160809380008091B1008460B6
:102F70008093B1008091B00081608093B000809117
:102F80007A00846080937A0080917A0082608093D6
:102F90007A0080917A00816080937A0080917A0033
:102FA000806880937A001092C100F8941092BC005F
:102FB0001092BA00789461E08BE00E94AA0260E06F
:102FC0008BE00E945E0261E088E00E94AA0262E05B
:102FD0008CE00E94AA0261E085E00E94AA0261E002
:102FE00086E00E94AA0261E089E00E94AA0261E0F4
:102FF0008AE00E94AA0260E088E00E945E0260E02F
:1030000085E00E945E0260E086E00E945E0260E071
:1030100089E00E945E0260E08AE00E945E0261E058
:1030200088E00E94AA0261E088E00E945E0261E0FE
:103030008CE00E94AA0261E08DE00E94AA0261E099
:1030400081E10E94AA0260E08CE00E945E0260E0E2
:103050008DE00E945E0260E081E10E945E021092BB
:1030600008031092070310920603109205030E94B2
:103070001C0480E091E090930403809303038CE0B0
:1030800091E0909302038093010380E88093BA005B
:103090008FE99BE090930A03809309038FE694E005
:1030A00090930C0380930B0388E48093B800E09125
:1030B0001904F0911A0482E08083E0911504F091E4
:1030C00016041082E0911704F091180480E18083C7
:1030D00010922104E0911D04F0911E0486E080838B
:1030E000E0911B04F0911C04808180618083E09159
:1030F0001B04F0911C04808188608083E0911B0494
:10310000F0911C04808180688083E0911B04F09121
:103110001C0480818F7D80838CE791E00E942302D4
:1031200042E069E27CE58FE090E40E94B4098AE81D
:1031300091E00E94550988E591E00E9423028AE807
:1031400091E00E9455090E94A31362E082E00E9470
:10315000AA0262E084E00E94AA0262E083E00E9488
:10316000AA0262E087E00E94AA02F89480916800B7
:1031700084608093680080916D008C6980936D00FD
:103180007894EAE1F3E0119223E0E532F207D9F70F
:103190008EE995E00E94D80380E090E0A0E7B2E4D9
:1031A0008093BC059093BD05A093BE05B093BF0569
:1031B00083E393E3A3E3B0E48093C0059093C10558
:1031C000A093C205B093C3051092C4051092C50523
:1031D0001092C6051092C705812C912C16E1A12EE4
:1031E00013ECB12E8092CC059092CD05A092CE0525
:1031F000B092CF05C12CD12C06E1E02E03E4F02ED5
:10320000C092D005D092D105E092D205F092D305BC
:1032100011E01093BA0584E695E00E94D80380E09F
:1032200090E0A0E2B1E48093820590938305A0939F
:103230008405B093850580E090E0A0E0BFE3809333
:10324000860590938705A0938805B093890580E053
:1032500090E0A0ECBFE380938A0590938B05A09348
:103260008C05B0938D0580E090E0A0E4B0EC8093F5
:10327000920590939305A0939405B093950580E0F3
:1032800090E0A0E4B0E48093960590939705A09316
:103290009805B0939905109380058AE295E00E9405
:1032A000D80380E090E0A0EAB1E4809348059093D1
:1032B0004905A0934A05B0934B058DEC9CECACE41A
:1032C000BEE380934C0590934D05A0934E05B093BB
:1032D0004F05109250051092510510925205109210
:1032E000530580E090E0A0EAB3EC809358059093FA
:1032F0005905A0935A05B0935B0580E090E0A0EAE1
:10330000B3E480935C0590935D05A0935E05B09354
:103310005F051093460580EF94E00E94D803412C8E
:10332000512C80E5682E81E4782E40920E05509253
:103330000F0560921005709211058AE999E9A9E1DB
:10334000BFE38093120590931305A0931405B093E7
:103350001505109216051092170510921805109277
:10336000190580921E0590921F05A0922005B0922B
:103370002105C0922205D0922305E0922405F09207
:10338000250510930C0586EB94E00E94D80340922B
:10339000D4045092D5046092D6047092D7042AE9DE
:1033A00039E949E15FE32093D8043093D90440938D
:1033B000DA045093DB041092DC041092DD041092C6
:1033C000DE041092DF048092E4049092E504A0925F
:1033D000E604B092E704C092E804D092E904E092D7
:1033E000EA04F092EB041093D2040E94CC036093A1
:1033F0007C0370937D0380937E0390937F030E94F0
:10340000CC0360938E0370938F038093900390930B
:103410009103809170008E7F809370008091B00046
:103420008C7F8093B0008091B100877F8093B10042
:103430008091B6008F7D8093B600809170008D7F63
:10344000809370008091B10084608093B10080917E
:10345000B1008C7F8093B10086E090E090931403DC
:103460008093130381E090E0A0E0B0E080930F032D
:1034700090931003A0931103B093120382E597E099
:1034800090930E0380930D0310921603109217036E
:1034900010921803109219031092150380911303D0
:1034A000909114038093B2008091700081608093AA
:1034B00070000E9475036093FB037093FC0380937C
:1034C000FD039093FE0320915503222309F46CC061
:1034D00020918D0321111AC021E020938D032093A8
:1034E0005403109250031092510310925203109201
:1034F000530310924F0310924E0332E030930301B6
:103500002093020110924D03209301012091540356
:10351000213009F0F7C310924C0310924B03109224
:103520004A031092490322E020935403609350030E
:1035300070935103809352039093530300914E0371
:1035400010E0F801E557FE4FF490D0900301E090B1
:10355000020180914D03882309F4D2C380910101B7
:10356000000F111F000F111F8F2C912CB12CA12CBB
:10357000882309F4AFC34F2D6D2D81E00E942F07E2
:103580000B5D1C4FC501B4010E944C2BD8012D913D
:103590003D914D915C910E94AB2B0E94A12D462F35
:1035A0006E2D82E00E942F070E94CC0300917C03C5
:1035B00010917D0320917E0330917F03AB01BC010C
:1035C000401B510B620B730B80910C0190910D010C
:1035D000092E000CAA0BBB0B84179507A607B7078B
:1035E00008F0A2C20E94CC0360937C0370937D0319
:1035F00080937E0390937F03F8946091E40370912D
:10360000E503072E000C880B990B0E944C2B20E041
:1036100030E04CED52E40E94AB2B20E030E843E96F
:1036200054E40E94282D609378037093790380936B
:103630007A0390937B036091E1037091E203072E7C
:10364000000C880B990B0E944C2B20E030E04CEDD5
:1036500052E40E94AB2B20E030E843E954E40E949E
:10366000282D609374037093750380937603909371
:1036700077031092E5031092E4031092E203109294
:10368000E1037894409078035090790360907A0336
:1036900070907B032BE037ED43EA5CE3C301B2019A
:1036A0000E94282D9058609370037093710380934B
:1036B0007203909373038090740390907503A090AD
:1036C0007603B09077032BE037ED43EA5CE3C50166
:1036D000B4010E94282D60936C0370936D03809356
:1036E0006E0390936F03C301B2019058A50194013A
:1036F0000E94B62C20E030E048E952E40E94282DD8
:103700006B017C0121EE3EE245E652E40E94AB2BC8
:103710002091AD033091AE034091AF035091B003BF
:103720000E94B72C6D877E878F87988B6093AD033F
:103730007093AE038093AF039093B003209168031E
:103740003091690340916A0350916B03C701B60140
:103750000E94B72C698B7A8B8B8B9C8B6093680350
:103760007093690380936A0390936B03A3019201A2
:10377000C501B4010E94B62C20E030E040E05FE3D8
:103780000E94AB2B4B015C0120E030E040E850E4AC
:10379000C701B6010E94142E2B013C0120E030E04D
:1037A00040EC50E4C701B6010E94142E698F7A8F55
:1037B0008B8F9C8FA7019601C701B6010E94AB2B8E
:1037C00020E030E040EC51E40E94282D9B01AC0148
:1037D00060E070E080E09FE30E94B62C6B017C010A
:1037E00020E030E044E354E4C301B2010E94282DFC
:1037F0009B01AC01C701B6010E94B72C6B017C0193
:1038000020E030E045EC56EC698D7A8D8B8D9C8DF7
:103810000E94282D9B01AC01C701B6010E94B62C65
:103820006B017C01A5019401C501B4010E94AB2B81
:103830009B01AC010E94B72C9B01AC01C701B601F2
:103840000E94AB2B0E94722E6B017C0120E030E0C5
:10385000A901C501B4010E940F2E18160CF01AC45C
:10386000C0926403D0926503E0926603F09267030E
:10387000C0906403D0906503E0906603F090670306
:10388000A701960160919E0370919F038091A00310
:103890009091A1030E94B72C60939E0370939F03A5
:1038A0008093A0039093A10369897A898B899C896D
:1038B0000E94232D4B015C0169897A898B899C893F
:1038C0000E94642E2B013C01A5019401C701B601A1
:1038D0000E94AB2B9B01AC0160916003709161036E
:1038E00080916203909163030E94B72C6093600300
:1038F000709361038093620390936303A301920129
:10390000C701B6010E94AB2B9B01AC0160915C0327
:1039100070915D0380915E0390915F030E94B72CCC
:1039200060935C0370935D0380935E0390935F03E9
:1039300080910E01813049F0843039F08F3F29F0B9
:103940008A3119F08D3109F0AAC31092D405109272
:10395000D5051092D6051092D70569EB71E0CE011E
:1039600007960E94AB1163EC71E0CE0101960E94B4
:10397000AB118E01095F1F4F9E012F5F3F4F4D8599
:103980005E856F8578898EE995E00E94E7116B016D
:103990007C01C0929A03D0929B03E0929C03F09228
:1039A0009D03CE0101960E94A311C8010E94A3119C
:1039B00020E030E046E153E4C701B6010E94282D23
:1039C0006B017C0120E030E0A9010E940F2E181647
:1039D00024F0F7FAF094F7F8F094C092B503D0927F
:1039E000B603E092B703F092B8036091B903709107
:1039F000BA03072E000C880B990B0E944C2B609386
:103A0000600570936105809362059093630569EB8F
:103A100071E0CE0107960E94AB1163EC71E0CE011C
:103A200001960E94AB1140919E0350919F036091BB
:103A3000A0037091A1038E01095F1F4F9E012F5FAC
:103A40003F4F8AE295E00E94E7116B017C01C09232
:103A50005603D0925703E0925803F0925903CE01D7
:103A600001960E94A311C8010E94A311C0922605CD
:103A7000D0922705E0922805F092290569EB71E0C4
:103A8000C8010E94AB1163EC71E0CE0101960E9467
:103A9000AB1140917003509171036091720370916A
:103AA00073039E012F5F3F4F80EF94E00E94E71168
:103AB0000E949A2D7093B2036093B103CE010196D8
:103AC0000E94A311C8010E94A311C092EC04D092DD
:103AD000ED04E092EE04F092EF0469EB71E0C801AE
:103AE0000E94AB1163EC71E0CE0101960E94AB1114
:103AF00040916C0350916D0360916E0370916F0360
:103B00009E012F5F3F4F86EB94E00E94E7110E94D9
:103B10009A2D7093B4036093B303CE0101960E9473
:103B2000A311C8010E94A3118091BD03882309F449
:103B3000F5C40E94CC036D877E878F87988B109188
:103B40000E01113019F0143009F099C384E190E0AE
:103B500090930D0180930C0181E08093A7038090E6
:103B6000B5039090B603A090B703B090B80320902F
:103B7000B3033090B403E090B103F090B2034090EF
:103B8000AD035090AE036090AF037090B0031092FD
:103B900093031E141F040CF0C5C220E030E040E087
:103BA0005FEBC301B2010E94452B6E2D87FF14C04D
:103BB000B701FF0C880B990B0E944C2B6B017C0109
:103BC000AC019B01C501B4010E94AB2BA70196017A
:103BD0000E94B72C0E94A12D462F62E081E00E9436
:103BE0002F07121413040CF0C8C220E030E040E0AC
:103BF0005FE3C301B2010E940F2E622D1816A4F4D8
:103C0000B101330C880B990B0E944C2B6B017C018A
:103C1000AC019B01C501B4010E94AB2BA701960129
:103C20000E94B72C0E94A12D462F61E082E00E94E5
:103C30002F07113009F0CCC26091B9037091BA031B
:103C4000072E000C880B990B0E944C2B6B017C01FA
:103C50002DEC3CEC4CEC5DE30E94AB2B9B01AC01EA
:103C6000C701B6010E94B62C20919E0330919F039C
:103C70004091A0035091A1030E94452B18164CF0CF
:103C80008091D9039091DA0301969093DA0380939F
:103C9000D9038091B2049091B304A091B404B0917F
:103CA000B5042D853E854F855889281B390B4A0B55
:103CB0005B0BDA01C901853C9940A105B10508F407
:103CC000AFC20E94090968EE73E080E090E00E94B4
:103CD0009A03ADC20B5D1C4FC501B4010E944C2B71
:103CE000F80120813181428153810E94AB2B0E94D7
:103CF000A12D462F6D2D81E00E942F074F2D50CC16
:103D00004F2DF8CF223009F081C10091500310915E
:103D100051032091520330915303601B710B820BAE
:103D2000930B6032714A8740910508F43DCC40E026
:103D300060E081E00E942F0740E060E082E00E94A6
:103D40002F0730904E0370904D0380914B0390915C
:103D50004C0360914B0370914C03181619061CF02C
:103D6000719561957109072E000C880B990B0E94C3
:103D70004C2B4B015C018091490390914A03609167
:103D8000490370914A03181619061CF07195619544
:103D90007109072E000C880B990B0E944C2B6B01AC
:103DA0007C01032D10E071101FC03110CDC0AC019B
:103DB0009B01C501B4010E940F2E18160CF0BBC068
:103DC000A7019601C501B4010E94282D21E020938E
:103DD0000101F801EE0FFF1FEE0FFF1FEB5DFC4F1F
:103DE0006083718382839383F801E557FE4FE491EA
:103DF000772009F407C180914F038F5F80934F03B1
:103E000080914B0390914C0360914B0370914C0354
:103E1000181619061CF0719561957109072E000C92
:103E2000880B990B0E944C2B6D877E878F87988B10
:103E30008091490390914A036091490370914A032C
:103E4000181619061CF0719561957109072E000C62
:103E5000880B990B0E944C2B2B013C012D853E8534
:103E60004F8558890E94282D6B017C0128E431EE92
:103E70004AE75FE30E94452B87FD0BC02CE53FE836
:103E800042E85FE3C701B6010E940F2E18160CF03E
:103E900078C0A701960160E070E080E89FE30E948F
:103EA000B62C6B017C0120E030E0A9010E940F2EAE
:103EB000181624F0F7FAF094F7F8F094000F111F99
:103EC000000F111F0B5D1C4FD8018D909D90AD9080
:103ED000BC902D853E854F855889C301B2010E9453
:103EE0000F2E2DEC3CEC4CEC5DE318160CF064C08E
:103EF000C701B6010E940F2E2FE832EC45E75DE3C3
:103F00001816B4F12DEC3CEC4CE45DE3C701B601AE
:103F10000E940F2E181644F52FE832EC45EF5CE3B3
:103F2000C501B4010E94B72CD8016D937D938D9388
:103F30009C93139726C0A5019401C701B6010E9466
:103F4000282D1092010145CF80910101882339F07D
:103F5000A7019601C501B4010E94282D3ACFA50101
:103F60009401C701B601F8CF2AE037ED43E25CE3E4
:103F7000C501B4010E94B72CF8016083718382836C
:103F8000938381E0830D10924F0380934E03109230
:103F90004D03893019F483E08093540380915403D6
:103FA000833019F081E0809354036CEB72E080E081
:103FB00090E00E949A03F8CAC701B6010E940F2E32
:103FC0002FE832EC45E75DE31816BCF02DEC3CEC35
:103FD0004CE45DE3C701B6010E940F2E18164CF4A5
:103FE0002FE832EC45EF5CE3C501B4010E94B62C2A
:103FF000C3CF2AE037ED43E25CE3C501B4010E9480
:10400000B62C92CF81E080934D03C8CF233061F569
:1040100084E08093540365E2E62E63E0F62E0EE121
:1040200010E0F701D1907F01C8010E94692CD816D9
:1040300021F06D2DC8010E94712C0F5F1F4F0234BB
:10404000110579F752EAE52E51E0F52E0AE010E06D
:10405000D7016D917D01C8010E94712C0F5F1F4F28
:1040600000311105A9F7A0CA243009F09DCA85E0E6
:10407000809354030E94A3138FEF80930E010E943C
:1040800005050E94FF081092A70310925503109295
:104090008D038ACAF7FAF094F7F8F094E1CB9EEF1B
:1040A000980F923018F08B3109F09FCC60915A0331
:1040B00070915B03072E000C880B990B0E944C2B10
:1040C00060939A0570939B0580939C0590939D0542
:1040D00069EB71E0CE0107960E94AB1163EC71E0D1
:1040E000CE0101960E94AB118E01095F1F4F9E0108
:1040F0002F5F3F4F4D855E856F85788984E695E01B
:104100000E94E71160939A0370939B0380939C0332
:1041100090939D03CE0101960E94A311C8010E94B5
:10412000A31163CC40E063E0E114F10409F456CD3F
:10413000F194E194F10820E030E040E05FE3C30156
:10414000B2010E940F2E6E2D1816A4F4B701FF0CB9
:10415000880B990B0E944C2B6B017C01AC019B01DD
:10416000C501B4010E94AB2BA70196010E94B72C98
:104170000E94A12D462F61E031CD40E063E0211483
:10418000310409F453CD31942194310820E030E01A
:1041900040E05FEBC301B2010E94452B622D87FF17
:1041A00014C0B101330C880B990B0E944C2B6B018E
:1041B0007C01AC019B01C501B4010E94AB2BA7019E
:1041C00096010E94B72C0E94A12D462F62E02ECDB1
:1041D000143009F05ECD6091B9037091BA03072ED7
:1041E000000C880B990B0E944C2B6B017C012DEC71
:1041F0003CEC4CEC5DE30E94AB2B9B01AC01C70196
:10420000B6010E94B62C20919E0330919F034091ED
:10421000A0035091A1030E940F2E87FF31CD39CD0D
:104220008091D9039091DA03C3970CF04ACD809125
:104230000E018F3109F06EC18091AC038093D905D6
:1042400084E690E09093F2038093F1030E943B0692
:104250000E94CC0300918E0310918F032091900354
:1042600030919103601B710B820B930B653F714082
:104270008105910508F45BC60E9409094BC18EEFC8
:10428000810F823008F05CC084E190E090930D01D2
:1042900080930C0181E08093A70320919A033091D1
:1042A0009B0340919C0350919D036091AD037091DD
:1042B000AE038091AF039091B0030E94900A809169
:1042C000B2049091B304A091B404B091B5042D85CB
:1042D0003E854F855889281B390B4A0B5B0BDA0149
:1042E000C901813A9F40A105B10508F4A0CFC09053
:1042F0009A03D0909B03E0909C03F0909D0320E0F4
:1043000030E0A901C701B6010E940F2E18161CF457
:10431000C701B60103C0C701B60190580E949A2D8B
:1043200060939403109297031092980383E0809314
:10433000990310929503109296030E94FF08C1CC36
:104340008BEF810F823050F5153029F520919203C3
:1043500084EF91E0289F8001299F100D11240E9475
:10436000CC03C0908E03D0908F03E0909003F09028
:104370009103AB01BC014C195D096E097F09012E47
:10438000000C220B330B041715072607370708F517
:104390000E9409094CCF08EE13E0E1CF1931E9F48E
:1043A0001092DF03109293030E94FF080E94CC0337
:1043B00000918E0310918F0320919003309191030F
:1043C000601B710B820B930B653F7140810591055A
:1043D000F8F681E08093A7032ACF1A3109F01AC2B8
:1043E00084E190E090930D0180930C0121E02093F3
:1043F000A7031091BC038091BB0390E0813091052D
:1044000009F0D0C180E090E0A6E1B3EC80935805BC
:1044100090935905A0935A05B0935B0580E090E016
:10442000A6E1B3E480935C0590935D05A0935E05DF
:10443000B0935F05209346056091B9037091BA036C
:10444000072E000C880B990B0E944C2B6B017C01F2
:104450002DEC3CEC4CEC5DE30E94AB2B9B01AC01E2
:10446000C701B6010E94B62C20919E0330919F0394
:104470004091A0035091A1031111C7C10E94452B87
:1044800018164CF08091D9039091DA03019690931D
:10449000DA038093D903E090B503F090B60300915E
:1044A000B7031091B8032091B3033091B403409146
:1044B000B1035091B2036091AD037091AE0380914E
:1044C000AF039091B0030E947E058091B204909159
:1044D000B304A091B404B091B5044D855E856F8599
:1044E0007889481B590B6A0B7B0B809108019091CE
:1044F0000901A0910A01B0910B0184179507A60745
:10450000B70708F445CF8091D9039091DA03C39798
:104510000CF03ECF8091BD03811153C010910E016C
:104520001D3109F030C584E190E090930D01809336
:104530000C012091BC038091BB0390E08130910578
:1045400009F0F9C480E090E0A6E1B3EC809358054F
:1045500090935905A0935A05B0935B0580E090E0D5
:10456000A6E1B3E480935C0590935D05A0935E059E
:10457000B0935F0581E08093460580ED97E02223AC
:1045800011F080E398EF9093BA038093B903E09021
:10459000B503F090B6030091B7031091B8032091D2
:1045A000B3033091B4034091B1035091B2036091D1
:1045B000AD037091AE038091AF039091B0030E9460
:1045C0007E059091CC03911109C08091CB0381119C
:1045D00005C08091CA03882309F404C78091C603EB
:1045E00021E9280F2A3008F0AFC62FEF3FEF3093B4
:1045F000DE032093DD031092BF039111DDC680918D
:10460000CB038111EBC68091CA038111E9C6809169
:104610000F0181110E944A038091DF03882309F46E
:10462000F9C68091DB03409103045091040420916A
:10463000D2033091D303421753070CF0E5C68E7FA7
:104640008093DB038091DB034091FF0350910004D2
:104650002091D6033091D703421753070CF0D6C6EA
:104660008D7F8093DB038091DB03409101045091A7
:1046700002042091D4033091D503421753070CF064
:10468000C7C68B7F8093DB036091CD0328E0629FD8
:10469000B00111246A5B7E4F8091DB0390E00E94A1
:1046A000D1071092DC032091E60340E8249F90019B
:1046B00011248091E4039091E503181619060CF477
:1046C000CBC68091E4039091E50391958195910982
:1046D0008F3191050CF0C5C6803191050CF0C3C631
:1046E00063E070E00E940730862F6091E30358E09A
:1046F000659FB0011124262BA0E18A9FC0011124DF
:10470000282B8091E1039091E203181619060CF40E
:10471000ACC68091E1039091E20391958195910956
:1047200067E08F31910544F466E08031910524F40F
:1047300063E070E00E940730622B6093E003109109
:10474000D9058091D805811731F01093D8051092C2
:10475000F4031092F3030E94CC036B017C0160917F
:10476000F1037091F2038DEE93E00E9421098823FA
:1047700009F48CC6C092ED03D092EE03E092EF03F1
:10478000F092F003173008F081C6E12FF0E0E55316
:10479000FC4D0C945C303A2A8A2AA32ABD2AE22ACC
:1047A000022B282B8230910589F480E090E0ACE563
:1047B000B3EC8093580590935905A0935A05B09394
:1047C0005B0580E090E0ACE5B3E42CCE039709F004
:1047D00033CE20E030E040EA53EC2093580530938C
:1047E000590540935A0550935B0580E090E0A0EA9C
:1047F000B3E480935C0590935D05A0935E05B09350
:104800005F0581E08093460517CE0E940F2E87FF3B
:1048100039CE41CE1B3109F098C084E190E09093ED
:104820000D0180930C0121E02093A7038091BB032D
:1048300090E08130910509F04DC080E090E0A0E467
:10484000B0EC8093920590939305A0939405B09358
:10485000950580E090E0A0E4B0E480939605909305
:104860009705A0939805B093990520938005209112
:104870009A0330919B0340919C0350919D0360915A
:10488000AD037091AE038091AF039091B0030E948D
:10489000900A8091B2049091B304A091B404B091B5
:1048A000B5042D853E854F855889281B390B4A0B49
:1048B0005B0BDA01C901409104015091050160913F
:1048C000060170910701481759076A077B0708F02E
:1048D000AECC0DCD82309105E1F420E030E040E82F
:1048E00050EC209392053093930540939405509398
:1048F000950580E090E0A0E8B0E480939605909361
:104900009705A0939805B093990581E08093800561
:10491000AECF039709F0ABCF80E090E0A0EAB0EC17
:104920008093920590939305A0939405B093950579
:1049300020E030E040EA50E420939605309397055C
:104940004093980550939905E0CF193209F08BC038
:1049500081E08093A70380918D0381113BC081E0AA
:1049600080938D030E94CC036093A2037093A303F2
:104970008093A4039093A5038091AB03082F037049
:10498000282F30E044E0359527954A95E1F7122F1E
:104990001370829586958695837071F59091AA0320
:1049A000892F8F7029E1829F802D1124893101F197
:1049B00092959F70929FF02C112490E00E948406A3
:1049C000482F602F81E00E942F074F2D612F82E03A
:1049D0000E942F076091920384E6689FB001112422
:1049E00082EA93E00E942109882309F493CDD0CC78
:1049F00028E2F22E88E2E1CF813091F43091AA03CF
:104A00003F8B4091A803488F5F89852F90E00E94DB
:104A10008406482F602F81E00E942F07488DD6CF53
:104A2000823091F76091AA0370E090E080E00E94EC
:104A30004C2B20E030E040E250E40E94AB2B0E947F
:104A40009A2D6F8B6091A80370E090E080E00E9447
:104A50004C2B20E030E040E250E40E94AB2B0E945F
:104A60009A2D688FD1CF143609F47EC0153209F023
:104A7000D7C084E190E090930D0180930C0180ED0C
:104A800097E09093BA038093B90381E08093A703E2
:104A90002091BB0330E02230310509F076C020E0E0
:104AA00030E04CE553EC2093580530935905409382
:104AB0005A0550935B0520E030E04CE553E4209329
:104AC0005C0530935D0540935E0550935F058093D0
:104AD0004605D0908203D1101AC0E090B503F09043
:104AE000B6030091B7031091B8032091B30330913E
:104AF000B4034091B1035091B2036091AD03709142
:104B0000AE038091AF039091B0030E947E05809127
:104B1000D9039091DA0301969093DA038093D90335
:104B2000883C91050CF05EC02091CE033091CF03FC
:104B30008091050490910604821793070CF077CBBF
:104B40002091D0033091D103809107049091080403
:104B5000821793070CF06BCB81E080938203109255
:104B600093030E94FF0863CB809183039091840399
:104B70009093CF038093CE03809185039091860319
:104B80009093D1038093D00374CF2330310589F4FF
:104B900020E030E040EA53EC20935805309359056B
:104BA00040935A0550935B0520E030E040EA53E41F
:104BB00086CF20E030E046E153EC20935805309357
:104BC000590540935A0550935B0540E050E066E17B
:104BD00073E440935C0550935D0560935E057093AC
:104BE0005F0575CF883C910509F421CB2091CE0358
:104BF0003091CF03809105049091060482179307AA
:104C000064F42091D0033091D103809107049091F6
:104C10000804821793070CF454C8D11052C807CB6C
:104C2000153609F459C0163209F071C08091BB03E2
:104C30009EEF980F923008F068C08093CD0381E01A
:104C40008093DF038093A7038091D9039091DA03C7
:104C500001969093DA038093D9030E94CC030091CC
:104C60008E0310918F032091900330919103601B6C
:104C7000710B820B930B653F71408105910508F420
:104C8000D6CA2091D2033091D3038091030490912E
:104C90000404281739070CF0CACA2091D4033091B4
:104CA000D5038091010490910204281739070CF074
:104CB000BECA2091D6033091D7038091FF03909113
:104CC0000004281739070CF0B2CA10928203109220
:104CD000DA031092D9035CCB80918703909188030B
:104CE0009093D3038093D2038091890390918A0398
:104CF0009093D5038093D40380918B0390918C0380
:104D00009093D7038093D60391CF81E096CF14324E
:104D100009F047C080918D0381110DC081E080931F
:104D20008D030E94CC036093A2037093A30380932E
:104D3000A4039093A5038091870390918803909397
:104D4000D3038093D2038091890390918A03909337
:104D5000D5038093D40380918B0390918C0390931F
:104D6000D7038093D60381E08093DF038093A7036A
:104D70008091BB038093CD036091810344E6649FDF
:104D8000B001112482EA93E00E942109882309F4EA
:104D9000C1CB0E94090964EF71E080E090E00C94BF
:104DA000671E1C3109F087C0C0908703D09088032C
:104DB000D092D303C092D203E0908903F0908A038B
:104DC000F092D503E092D40300918B0310918C03F1
:104DD0001093D7030093D60381E08093DF03809381
:104DE000A703609180035AE0659FB001112470937E
:104DF000BA036093B9038091BB038093CD03072E60
:104E0000000C880B990B0E944C2B4B015C012DEC84
:104E10003CEC4CEC5DE30E94AB2B9B01AC01C5016B
:104E2000B4010E94B62C20919E0330919F034091C3
:104E3000A0035091A1030E94452B18164CF08091BD
:104E4000D9039091DA0301969093DA038093D90302
:104E50000E94CC0380908E0390908F03A0909003CB
:104E6000B0909103681979098A099B09653F7140DF
:104E70008105910538F08091D9039091DA03C397A9
:104E80000CF087CF8091030490910404C816D906D2
:104E90000CF040CB8091010490910204E816F906D1
:104EA0000CF038CB8091FF0390910004081719078C
:104EB0000CF030CB6ECF86EF810F853008F0B7C98C
:104EC0001092D9051B3031F48AE08093EA031092E6
:104ED000EB0325C01C30E1F41092EA031092EB03BF
:104EE0008AE08093EC030E94CC0300918E03109122
:104EF0008F032091900330919103601B710B820B03
:104F0000930B653F71408105910508F462CA40CA60
:104F10001D3041F41092EA038AE08093EB03109273
:104F2000EC03E1CF1E30F9F61092EA03D0CF81E016
:104F30008093A703EFCA8230910589F480E090E066
:104F4000ACE5B3EC8093580590935905A0935A05AE
:104F5000B0935B0580E090E0ACE5B3E403CB03974E
:104F600009F00BCB80E090E0A0EAB3EC8093580509
:104F700090935905A0935A05B0935B0580E090E0AB
:104F8000A0EAB3E4EFCA123269F48091AC038093D3
:104F9000D90584E690E09093F2038093F1030E9498
:104FA0003B060FCB133229F080EE810F823008F0E0
:104FB00071C08091AB03982F9370F92E282F30E0A9
:104FC00094E0359527959A95E1F7022F0370829525
:104FD00086958695837039F59091AA03892F8F70F5
:104FE00029E1829F802D11248931C9F092959F700B
:104FF000929FE02C112490E00E948406482F6F2D90
:1050000081E00E942F074E2D602F82E00E942F0723
:10501000133209F0D6CA81E08093A903C0CF88E299
:10502000E82E88E2E8CF813091F4A091AA03AD8BFD
:10503000B091A803BE8BED898E2F90E00E9484066C
:10504000482F6F2D81E00E942F074E89DDCF8230DF
:1050500091F76091AA0370E090E080E00E944C2BF1
:1050600020E030E040E250E40E94AB2B0E949A2DF9
:105070006D8B6091A80370E090E080E00E944C2B63
:1050800020E030E040E250E40E94AB2B0E949A2DD9
:105090006E8BD1CF1E3151F481E08093DF0390916C
:1050A000BB039093CD038093D8038BCA183609F0C5
:1050B00060C00091D0031091D103C090CE03D09076
:1050C000CF038091BB0390E00E942906B82E0E9476
:1050D0004A03E0900504F09006048091A603813015
:1050E000F1F464EF71E082EA93E00E9421098823E1
:1050F00009F182E08093A603C70162E070E00E949C
:1051000007304B2D62E0019791F561E081E00E944C
:105110002F074B2D61E082E00E942F070BC08230E9
:1051200069F464EF71E082EA93E00E942109811141
:105130001092A60381E08093A70343CA80910704DD
:1051400090910804EC14FD046CF44B2D801791072A
:10515000E4F681E08093A60361E00E942F074B2DC7
:1051600062E0D9CF4B2D62E0801791077CF681E099
:10517000F4CF1936B1F50091D0031091D103E0902E
:10518000CE03F090CF038091BB0390E00E942906EC
:10519000D82E0E944A038091070490910804209120
:1051A0000504309106044D2D2E153F0574F462E080
:1051B000801791072CF481E00E942F074D2DAACF74
:1051C00081E00E942F074D2DCBCF8017910714F45B
:1051D00061E0F1CF64E081E00E942F074D2D64E093
:1051E0009ACF1A3609F0EDC9E090D603F090D703B4
:1051F000C090D403D090D503A090D203B090D30335
:105200008091BB0390E00E942906982E0E944A03D9
:105210008091A6038130B9F46CEB72E082EA93E0EE
:105220000E942109882309F485CF492D62E081E09D
:105230000E942F07492D62E082E00E942F0784E040
:105240008093A60377CF8230A9F46CEB72E082EAF8
:1052500093E00E942109882309F46CCF492D61E075
:1052600081E00E942F07492D61E082E00E942F0714
:1052700085E0E6CF0091010410910204833019F516
:105280006CEB72E082EA93E00E942109882309F422
:1052900051CFC80162E070E00E940730492D0197AC
:1052A00059F461E081E00E942F07492D61E082E01E
:1052B0000E942F0786E0C4CF62E081E00E942F07A2
:1052C000492D62E0F4CF845068E572E0833008F441
:1052D0002ACFA016B10664F4492D61E081E00E9456
:1052E0002F07492D62E082E00E942F0781E0A8CFBE
:1052F0008091030490910404C816D90664F4492DE2
:1053000061E081E00E942F07492D62E082E00E9467
:105310002F0782E095CF8091FF0390910004492DE3
:10532000E816F9065CF461E081E00E942F07492D40
:1053300062E082E00E942F0783E082CF62E081E09A
:105340000E942F07492DE6CE20EB280F2E3118F4AE
:105350002EEF3FEF4CC928ED280F283218F42DEF1F
:105360003FEF45C92FEF280F273218F42CEF3FEFFE
:105370003EC928E8280F2A3018F421E030E037C968
:105380002EE7280F2E3118F422E030E030C920E655
:10539000280F283218F423E030E029C928E3280F29
:1053A000283218F424E030E022C9811124C9109277
:1053B000DE031092DD031FC981E08093BE0360917C
:1053C000BE03F8E06F9FB00111246A5D7E4F8091AB
:1053D000DD039091DE030E944A0819C982E0EDCFF7
:1053E00083E0EBCF1092DE031092DD038091BF03C8
:1053F00081110DC966E271E090E080E00E944A08E8
:1054000081E08093BF0303C981601AC9826029C902
:10541000846038C91092DE031092DD038091DC03B2
:10542000811141C98091DB0366E471E090E00E9444
:10543000D1071092DA031092D9030E9405050E9449
:10544000FF088091D803811103C08FEF80930E0174
:1054500081E08093DC0327C98091E4039091E50308
:1054600037C987E042C986E040C98091E103909145
:10547000E20356C98091EC039091EB032091EA037B
:105480002093E9039093E8038093E7036091F70387
:105490007091F8038091F9039091FA032AE030E0CB
:1054A00040E050E00E943D308091F5039091F6037A
:1054B000280F391F3093F6032093F5030E947503DC
:1054C0000091FB031091FC032091FD033091FE033A
:1054D000601B710B820B930B6093F7037093F803BF
:1054E0008093F9039093FA0362E070E080E090E02B
:1054F0000E949A0380E090E0892B11F40C94591AD1
:105500000E94A001882311F40C94591A0E940000F3
:105510000C94591A9091F4038091EC032091EB03C1
:105520003091EA03992319F080E020E030E03093D5
:10553000E9032093E8038093E70381E0911180E081
:105540008093F403A3CF8091F4039091EC03209116
:10555000EB033091EA03833018F090E020E030E074
:105560003093E9032093E8039093E70390E00196DA
:105570006AE070E00E940730E3CF8091F3039091DE
:10558000EA0391118093E9039091EB0391118093C9
:10559000E8039091EC0391118093E7039091F40359
:1055A000911108C08F5F8093F3038B300CF46ECFA2
:1055B00081E0C6CF81508093F303811167CF1092B1
:1055C000F40364CF8091F403811113C08091F3033D
:1055D0009091EA0391118093E9039091EB0391116B
:1055E0008093E8039091EC039923E1F28093E70321
:1055F000D9CF1092E9031092E8031092E7031092BA
:10560000F303DDCF9091EC032091EB033091EA039B
:105610008091F403811112C08091F30331118093C2
:10562000E90321118093E80391118093E703882314
:1056300009F4BECF81508093F30328CF3093E90360
:105640002093E8039093E7038AE08093F303B7CFB6
:105650008091F403B3E08B9F90011124F901EA5685
:10566000FE4F9491F901EB56FE4F44912C563E4F5C
:10567000F90124912093E9034093E8039093E70311
:1056800090E0019667E070E075CF0E94872B08F4E8
:1056900081E00895E89409C097FB3EF490958095C9
:1056A000709561957F4F8F4F9F4F9923A9F0F92FE8
:1056B00096E9BB279395F695879577956795B79566
:1056C000F111F8CFFAF4BB0F11F460FF1BC06F5F4C
:1056D0007F4F8F4F9F4F16C0882311F096E911C05E
:1056E000772321F09EE8872F762F05C0662371F07F
:1056F00096E8862F70E060E02AF09A95660F771F93
:10570000881FDAF7880F9695879597F90895990F6E
:105710000008550FAA0BE0E8FEEF16161706E8077B
:10572000F907C0F012161306E407F50798F0621B9C
:10573000730B840B950B39F40A2661F0232B242B71
:10574000252B21F408950A2609F4A140A6958FEF90
:10575000811D811D08950E94BE2B0C942F2C0E9448
:10576000212C38F00E94282C20F0952311F00C9465
:10577000182C0C941E2C11240C94632C0E94402C89
:1057800070F3959FC1F3950F50E0551F629FF00194
:10579000729FBB27F00DB11D639FAA27F00DB11DAD
:1057A000AA1F649F6627B00DA11D661F829F222736
:1057B000B00DA11D621F739FB00DA11D621F839FBD
:1057C000A00D611D221F749F3327A00D611D231F93
:1057D000849F600D211D822F762F6A2F11249F57E1
:1057E00050409AF0F1F088234AF0EE0FFF1FBB1FE4
:1057F000661F771F881F91505040A9F79E3F5105A3
:1058000080F00C94182C0C94632C5F3FE4F3983ECA
:10581000D4F3869577956795B795F795E7959F5F4C
:10582000C1F7FE2B880F911D9695879597F90895DE
:1058300097F99F6780E870E060E008959FEF80EC43
:10584000089500240A9416161706180609060895E6
:1058500000240A9412161306140605060895092E4C
:105860000394000C11F4882352F0BB0F40F4BF2BBB
:1058700011F460FF04C06F5F7F4F8F4F9F4F0895FB
:1058800057FD9058440F551F59F05F3F71F04795F1
:10589000880F97FB991F61F09F3F79F087950895D6
:1058A000121613061406551FF2CF4695F1DF08C0F5
:1058B000161617061806991FF1CF86957105610512
:1058C00008940895E894BB2766277727CB0197F9BA
:1058D0000895F999FECF92BD81BDF89A992780B5B8
:1058E0000895262FF999FECF1FBA92BD81BD20BD24
:1058F0000FB6F894FA9AF99A0FBE019608952F926E
:105900003F924F925F926F927F928F929F92AF924F
:10591000BF92CF92DF92EF92FF920F931F93CF939C
:10592000DF93CDB7DEB7CA1BDB0B0FB6F894DEBF33
:105930000FBECDBF09942A88398848885F846E8459
:105940007D848C849B84AA84B984C884DF80EE80A3
:10595000FD800C811B81AA81B981CE0FD11D0FB6AC
:10596000F894DEBF0FBECDBFED0108955058BB27A0
:10597000AA270E94CE2C0C942F2C0E94212C38F0A8
:105980000E94282C20F039F49F3F19F426F40C943F
:105990001E2C0EF4E095E7FB0C94182CE92F0E94C6
:1059A000402C58F3BA17620773078407950720F055
:1059B00079F4A6F50C94622C0EF4E0950B2EBA2F18
:1059C000A02D0B01B90190010C01CA01A001112405
:1059D000FF27591B99F0593F50F4503E68F11A16B1
:1059E000F040A22F232F342F4427585FF3CF469542
:1059F00037952795A795F0405395C9F77EF41F1664
:105A0000BA0B620B730B840BBAF09150A1F0FF0F2D
:105A1000BB1F661F771F881FC2F70EC0BA0F621F19
:105A2000731F841F48F4879577956795B795F79509
:105A30009E3F08F0B0CF9395880F08F09927EE0F9E
:105A40009795879508950E94D22DE3950C94FB2D90
:105A50000E943C2D0C942F2C0E94282C58F00E9460
:105A6000212C40F029F45F3F29F00C94182C51119F
:105A70000C94632C0C941E2C0E94402C68F39923E8
:105A8000B1F3552391F3951B550BBB27AA2762173A
:105A90007307840738F09F5F5F4F220F331F441F47
:105AA000AA1FA9F335D00E2E3AF0E0E832D091507B
:105AB0005040E695001CCAF72BD0FE2F29D0660F68
:105AC000771F881FBB1F261737074807AB07B0E8AB
:105AD00009F0BB0B802DBF01FF2793585F4F3AF0B1
