:100000000C9465000C948D000C948D000C948D0064
:100010000C948D000C948D000C948D000C948D002C
:100020000C948D000C948D000C948D000C948D001C
:100030000C948D000C948D000C948D000C948D000C
:100040000C9423040C948D000C94F1030C94CB03BA
:100050000C948D000C948D000C948D000C948D00EC
:100060000C946D040C948D00000000080002010047
:100070000003040700000000000000005A756D69CD
:10008000206D696E692076657220000000000025F1
:100090000028002B0000000000240027002A000494
:1000A000040404040404040202020202020303031F
:1000B0000303030102040810204080010204081019
:1000C00020010204081020008C0511241FBECFEF70
:1000D000D8E0DEBFCDBF11E0A0E0B1E0E0EAF1E1A1
:1000E00002C005900D92A433B107D9F723E0A4E331
:1000F000B1E001C01D92A630B207E1F710E0C5E6FD
:10010000D0E004C02197FE010E94A606C436D107A4
:10011000C9F70E94C5050C94CE080C94000090E02D
:10012000FC01ED54FF4F249181569F4FFC018491B7
:10013000882399F090E0880F991FFC01EB56FF4F40
:10014000A591B491FC01E557FF4F859194918FB72C
:10015000F894EC91E22BEC938FBF08950895CF9320
:10016000DF93AC01E0915702F09158023097F1F023
:1001700090915602809155029817C0F090E0292F77
:1001800030E02617370754F4D901AA5CBE4F240F7C
:10019000351FE90128812C939F5FF1CF1092560201
:1001A00060935502CB01DF91CF910994DF91CF91FC
:1001B0000895AF92BF92CF92DF92EF92FF920F938A
:1001C0001F93CF93DF936C017B018B01040F151FED
:1001D000EB015E01AE18BF08C017D10759F0699155
:1001E000D601ED91FC910190F081E02DC6010995B9
:1001F000892B79F7C501DF91CF911F910F91FF9066
:10020000EF90DF90CF90BF90AF900895FC01538D99
:10021000448D252F30E0842F90E0821B930B5417E0
:1002200010F0CF96089501970895FC01918D828D6D
:10023000981761F0A28DAE0FBF2FB11D5D968C9106
:10024000928D9F5F9F73928F90E008958FEF9FEF45
:100250000895FC01918D828D981731F0828DE80F01
:10026000F11D858D90E008958FEF9FEF0895FC01BB
:10027000918D228D892F90E0805C9F4F821B910988
:100280008F739927089589E592E00E94370121E054
:10029000892B09F420E0822F089580E090E0892BDB
:1002A00029F00E94430181110C9400000895FC0183
:1002B000A48DA80FB92FB11DA35ABF4F2C91848DC7
:1002C00090E001968F739927848FA689B7892C9324
:1002D000A089B1898C91837080648C93938D848D77
:1002E000981306C00288F389E02D80818F7D80837A
:1002F0000895EF92FF920F931F93CF93DF93EC013A
:1003000081E0888F9B8D8C8D98131AC0E889F989BC
:10031000808185FF15C09FB7F894EE89FF896083BF
:10032000E889F98980818370806480839FBF81E040
:1003300090E0DF91CF911F910F91FF90EF90089582
:10034000F62E0B8D10E00F5F1F4F0F731127E02E5D
:100350008C8D8E110CC00FB607FCFACFE889F98995
:10036000808185FFF5CFCE010E945701F1CFEB8D43
:10037000EC0FFD2FF11DE35AFF4FF0829FB7F89469
:100380000B8FEA89FB8980818062CFCFCF93DF9387
:10039000EC01888D8823B9F0AA89BB89E889F9899D
:1003A0008C9185FD03C0808186FD0DC00FB607FCD2
:1003B000F7CF8C9185FFF2CF808185FFEDCFCE0105
:1003C0000E945701E9CFDF91CF91089590E0FC01A1
:1003D000E859FF4F2491FC01ED54FF4F3491FC018B
:1003E000E156FF4FE491EE23C9F0222339F0233088
:1003F00001F1A8F4213019F1223029F1F0E0EE0FDB
:10040000FF1FE557FF4FA591B4918FB7F894EC917A
:10041000611126C030953E233C938FBF089527304D
:10042000A9F02830C9F0243049F7809180008F7DF1
:1004300003C0809180008F7780938000DFCF84B5E8
:100440008F7784BDDBCF84B58F7DFBCF8091B000EB
:100450008F778093B000D2CF8091B0008F7DF9CF9D
:100460003E2BDACF3FB7F89480914B0290914C022B
:10047000A0914D02B0914E0226B5A89B05C02F3F1A
:1004800019F00196A11DB11D3FBFBA2FA92F982FBA
:100490008827BC01CD01620F711D811D911D42E0B5
:1004A000660F771F881F991F4A95D1F708958F927D
:1004B0009F92AF92BF92CF92DF92EF92FF920E94F3
:1004C00032024B015C0188EEC82E83E0D82EE12C6D
:1004D000F12C0E943202681979098A099B09683E49
:1004E000734081059105A8F321E0C21AD108E10803
:1004F000F10888EE880E83E0981EA11CB11CC1147F
:10050000D104E104F10429F7FF90EF90DF90CF9040
:10051000BF90AF909F908F9008952091BC01260FBF
:100520003327331F21343105ECF420910002FC0104
:1005300090E080E0243069F082E00895A091BC0151
:100540002191AC0144585E4FA40FB52FB11D2C93DF
:100550000196861798F38091BC01680F6093BC01E7
:1005600080E0089581E008951092000281E0809378
:1005700002021092010261E082E10E94E60161E064
:1005800083E10E94E601E9EBF0E080818E7F8083C9
:1005900080818D7F808388E48093B80085E4809398
:1005A000BC0008950895E091560280915502E81725
:1005B00030F4F0E0EA5CFE4F808190E008958FEF28
:1005C0009FEF089590915602809155022FEF3FEFD3
:1005D000981748F4E92FF0E0EA5CFE4F208130E004
:1005E0009F5F90935602C9010895809155029091A2
:1005F0005602891B990B0895CF93DF93CB01EA0133
:10060000642F0E948D02CE01DF91CF910895CF9388
:10061000DF931F92CDB7DEB7698361E0CE0101960B
:100620000E948D0281E090E00F90DF91CF910895BC
:1006300090E080E0089542E050E06AE271E089E5F0
:1006400092E00C94D900EF92FF920F931F93CF93F7
:10065000DF930091550280915602202F281B330B07
:100660007901B90180913401909135010E94AC0665
:10067000EC019093350180933401FC01CF018C1B78
:100680009D0B8E159F0514F41192F8CF10E0809108
:100690005602081751F086EF92E00E94E202FE0136
:1006A000E10FF11D80831F5FF2CF8E818E3EA9F492
:1006B00046E050E06DE271E089E592E00E94D900E9
:1006C0000E941B0388E198E00FB6F894A8958093E8
:1006D00060000FBE90936000FFCFDF91CF911F911C
:1006E0000F91FF90EF900895CF93DF9385ED809366
:1006F000BC008091780190917901A0917A01B0912C
:100700007B010796A11DB11D23E0B695A79597958E
:1007100087952A95D1F72091BC0024FD03C0109243
:10072000000236C0409178015091790160917A01C0
:1007300070917B01452B462B472B69F30097A10550
:10074000B10541F02AE22A95F1F700C00197A1090D
:10075000B109E1CF8091770191E0909376018823F0
:10076000B9F0C091B800D091BA008091BC008A7BEA
:100770008093BC0060E082E10E94E60160E083E1DA
:100780000E94E6010E94B402D093BA00C093B80060
:10079000DF91CF9108951F920F920FB60F921124FF
:1007A0002F933F934F935F936F937F938F939F9379
:1007B000AF93BF93EF93FF9389E592E00E945701B7
:1007C000FF91EF91BF91AF919F918F917F916F9129
:1007D0005F914F913F912F910F900FBE0F901F90FF
:1007E00018951F920F920FB60F9211242F938F938B
:1007F0009F93EF93FF93E0916902F0916A028081E9
:10080000E0916F02F091700282FD1BC09081809197
:1008100072028F5F8F7320917302821741F0E09113
:100820007202F0E0E75AFD4F958F80937202FF91BC
:10083000EF919F918F912F910F900FBE0F901F906E
:1008400018958081F4CF1F920F920FB60F9211244A
:100850002F933F938F939F93AF93BF9380914702C2
:1008600090914802A0914902B0914A02309146020B
:1008700023E0230F2D3758F50196A11DB11D2093BC
:1008800046028093470290934802A0934902B09396
:100890004A0280914B0290914C02A0914D02B0917E
:1008A0004E020196A11DB11D80934B0290934C0204
:1008B000A0934D02B0934E02BF91AF919F918F9143
:1008C0003F912F910F900FBE0F901F90189526E823
:1008D000230F0296A11DB11DD2CF1F920F920FB60A
:1008E0000F9211242F933F934F935F936F937F93B6
:1008F0008F939F93AF93BF93EF93FF938091B90032
:10090000887F803609F44AC0F0F5883209F4A7C020
:1009100018F5803109F49BC0B8F4882309F4F9C0B4
:10092000883009F494C0FF91EF91BF91AF919F91EE
:100930008F917F916F915F914F913F912F910F9088
:100940000FBE0F901F901895883109F488C080322F
:1009500051F78093FF0114C0803409F49DC040F426
:100960008033B9F38833F9F68093FF0185ECB0C08A
:10097000803509F485C0883509F496C0883499F625
:100980000E947403D0CF883909F48CC038F58837B9
:1009900029F050F4883611F0803729F683E08093EF
:1009A00000021092FE0157C0883809F47BC08039DC
:1009B00019F0803809F0B7CF8091FE01803408F03B
:1009C00071C0E091FE0181E08E0F8093FE01809165
:1009D000BB00F0E0E254FE4F80833DC0803B39F025
:1009E000E0F4803A09F479C0883A09F09CCF84E0B9
:1009F000809300021092BD011092BC01E09151025F
:100A0000F091520209958091BC0181110FC081E0E3
:100A10008093BC0110927C0109C0803C09F4A6CFF0
:100A2000883C09F4A3CF883B09F07DCFE091BD015C
:100A300081E08E0F8093BD01F0E0E458FE4F80818D
:100A40008093BB009091BD018091BC0129C0809131
:100A500045028093BB0085EC8093BC0064CF9091ED
:100A6000440280914302981758F5E091440281E0D6
:100A70008E0F80934402F0E0ED5FFD4F8081E9CF5F
:100A8000E091440281E08E0F809344028091BB008C
:100A9000F0E0ED5FFD4F808390914402809143022E
:100AA0009817C8F285E8D8CFE091440281E08E0F14
:100AB000809344028091BB00F0E0ED5FFD4F8083A6
:100AC0008091020281115CCF81E08093010284EA6F
:100AD0008093BC001092000226CF85EC8093BC006E
:100AE000109200028091FE01803430F4E091FE010A
:100AF000F0E0E254FE4F10826091FE0170E0E09160
:100B00004F02F09150028EEB91E009951092FE0198
:100B10000ACF1092FF0134CFE9E5F2E0138212828E
:100B200088EE93E0A0E0B0E084839583A683B7834A
:100B30002AE031E03183208325EC30E035872487BB
:100B400024EC30E03787268720EC30E0318B208B97
:100B500021EC30E0338B228B22EC30E0358B248B80
:100B600026EC30E0378B268B118E128E138E148E6E
:100B7000E6EFF2E01382128284839583A683B78323
:100B80008CE191E0918380830895789484B58260AC
:100B900084BD84B5816084BD85B5826085BD85B521
:100BA000816085BD80916E00816080936E0010929F
:100BB000810080918100826080938100809181001A
:100BC00081608093810080918000816080938000AB
:100BD0008091B10084608093B1008091B000816009
:100BE0008093B00080917A00846080937A00809135
:100BF0007A00826080937A0080917A00816080938D
:100C00007A0080917A00806880937A001092C10007
:100C100010925602109255021092540210925302F2
:100C20000E94B4028EEA90E09093520280935102A7
:100C30008FEA90E09093500280934F0280E8809377
:100C4000BA0083E293E0909358028093570288E4BD
:100C50008093B800E0916902F0916A0282E080839B
:100C6000E0916502F09166021082E0916702F091D6
:100C7000680280E1808310927102E0916D02F09130
:100C80006E0286E08083E0916B02F0916C028081BD
:100C900080618083E0916B02F0916C0280818860BA
:100CA0008083E0916B02F0916C0280818068808388
:100CB000E0916B02F0916C0280818F7D8083CCE7A4
:100CC000D0E0FE016491662339F089E592E00E944C
:100CD00079012196892BA9F70E941B038CE00E94C1
:100CE0008F008DE00E948F0081E10E948F00C0E0A4
:100CF000D0E061E08CE00E94E6010E94570260E0D3
:100D00008CE00E94E6010E94570261E08DE00E94A3
:100D1000E6010E94570260E08DE00E94E6010E9419
:100D2000570261E081E10E94E6010E94570260E003
:100D300081E10E94E6010E9457022097D1F20E94B1
:100D400043018823B1F20E940000D3CFEE0FFF1FB2
:100D50000590F491E02D0994B0E0A0E0E2EBF6E01C
:100D60000C9499088C01009751F4CB010E947207F2
:100D70008C01C801CDB7DEB7E0E10C94B508FC01E9
:100D8000E60FF71F9C0122503109E217F30708F420
:100D90009DC0D901CD91DC911197C617D70798F066
:100DA000C530D10530F3CE0104978617970708F3B5
:100DB000C61BD70B2297C193D1936D937C93CF0120
:100DC0000E940E08D6CF5B01AC1ABD0A4C018C0EF6
:100DD0009D1EA0910403B0910503512C412CF12CD0
:100DE000E12C109731F5809102039091030388154F
:100DF000990509F05CC04616570608F058C0809166
:100E0000000190910101009741F48DB79EB7409188
:100E1000040150910501841B950BE817F90708F0B0
:100E200055C0F0930303E0930203F90171836083DB
:100E3000A0CF8D919C91119712966C90129713965A
:100E40007C901397A815B90559F56C0142E0C40EC2
:100E5000D11CCA14DB0420F1AC014A195B09DA0188
:100E60001296159780F06282738251834083D90174
:100E70006D937C93E114F10471F0D7011396FC9308
:100E8000EE93129776CF22968C0F9D1FF9019183D6
:100E90008083F301EFCFF0930503E093040369CF60
:100EA0004816590608F42C017D01D3019ACFCB01D5
:100EB0000E9472077C01009749F0AE01B8010E94C0
:100EC0006907C8010E940E08870153CF10E000E0B7
:100ED00050CFFB01DC0102C001900D924150504007
:100EE000D8F708950F931F93CF93DF938230910526
:100EF00010F482E090E0E0910403F091050330E00B
:100F000020E0B0E0A0E0309799F42115310509F414
:100F10004AC0281B390B24303105D8F58A819B81C2
:100F20006115710589F1FB0193838283FE0111C074
:100F3000408151810281138148175907E0F0481719
:100F4000590799F4109761F012960C931297139623
:100F50001C933296CF01DF91CF911F910F9108958D
:100F60000093040310930503F4CF2115310551F0CC
:100F70004217530738F0A901DB019A01BD01DF01D7
:100F8000F801C1CFEF01F9CF9093050380930403DB
:100F9000CDCFFE01E20FF31F8193919322503109CF
:100FA00039832883D7CF2091020330910303232B69
:100FB00041F4209102013091030130930303209307
:100FC000020320910001309101012115310541F406
:100FD0002DB73EB74091040150910501241B350BFC
:100FE000E0910203F0910303E217F307A0F42E1B34
:100FF0003F0B2817390778F0AC014E5F5F4F24177D
:10100000350748F04E0F5F1F5093030340930203D0
:10101000819391939FCFF0E0E0E09CCFCF93DF935B
:101020000097E9F0FC01329713821282A091040329
:10103000B0910503ED0130E020E01097A1F420818C
:101040003181820F931F20910203309103032817EF
:10105000390709F061C0F0930303E0930203DF91C5
:10106000CF910895EA01CE17DF07E8F54A815B8149
:101070009E0141155105B1F7E901FB83EA834991CE
:101080005991C40FD51FEC17FD0761F48081918140
:101090000296840F951FE901998388838281938149
:1010A0009B838A83F0E0E0E012968D919C911397E8
:1010B0000097B9F52D913C911197CD010296820FC1
:1010C000931F20910203309103032817390739F643
:1010D000309751F51092050310920403B093030367
:1010E000A0930203BCCFD383C28340815181840F7C
:1010F000951FC817D90761F44E5F5F4F88819981AA
:10110000480F591F518340838A819B819383828337
:101110002115310509F0B0CFF0930503E0930403E6
:101120009ECFFD01DC01C0CF13821282D7CF2F9258
:101130003F924F925F926F927F928F929F92AF9267
:10114000BF92CF92DF92EF92FF920F931F93CF93B4
:10115000DF93CDB7DEB7CA1BDB0B0FB6F894DEBF4B
:101160000FBECDBF09942A88398848885F846E8471
:101170007D848C849B84AA84B984C884DF80EE80BB
:10118000FD800C811B81AA81B981CE0FD11D0FB6C4
:10119000F894DEBF0FBECDBFED010895F894FFCFE8
:1011A000000006038000000000007901D90006015C
:1011B000C601370115012901000000000703FC02E8
:1011C0001803D202F502E202D3020D0A007265731F
:0411D0006574210021
:00000001FF
